:020000022000DC
:1060000000F0032059620200896202008B620200E4
:106010008D6202008F6202009162020000000000A7
:106020000000000000000000000000009362020079
:10603000956202000000000097620200996202006F
:10604000553603009F620200E5970300A362020039
:10605000A5620200A76202005D680200AB62020056
:10606000AD620200AF6202004D0C0300B362020099
:10607000B5620200B7620200B9620200BB620200B0
:10608000BD62020075300300F9970200C36202008E
:1060900011310300C762020021650200CB620200D9
:1060A000CD620200CF620200D1620200D362020020
:1060B000D5620200D76202009B6202009B6202006E
:1060C000D9620200DB620200DD620200DF620200D0
:1060D000E1620200E3620200E56202008145030022
:1060E000E9620200EB620200ED6202009B620200C4
:1060F0009B620200F16202009B620200EF620200FA
:10610000354936480A1A02D0072291438D46344950
:1061100034480A1A06D00722914381F309880222E3
:1061200082F3148830483149314A00F043F831484D
:106130003149324A00F03EF831483249324A00F0E3
:1061400039F832483249334A00F034F8324833499A
:10615000334A00F02FF833483349344A00F02AF824
:1061600033483449344A00F025F834483449002291
:1061700000F02BF833483449002200F026F8334869
:106180003349091A082903DB002202600430016048
:106190001F482049884205D00268043003B4904764
:1061A00003BCF7E700208646EC4600200021294A80
:1061B0009047FEE7884207D0521A05D00378013095
:1061C0000B700131013AF9D17047884202D0027058
:1061D0000130FAE77047000000F0032000E80320D8
:1061E00000F0032000F0032010D70300C832002085
:1061F00018330020F4620200F4620200ACC0030015
:1062000010D70300C8320020C83200207CC1030030
:106210007CC103007CC103007CC103007CC103007E
:106220007CC103007CC103007CC1030010D70300C4
:1062300060D70300183300201833002018330020E3
:10624000207B0020207B0020207B0020207B002062
:10625000207F0020F962020008484FF007018843C0
:106260008546074880470748016841F4700101608E
:10627000BFF34F8FBFF36F8FFFF742BF00F00320D4
:106280005D2D030088ED00E0FEE7FEE7FEE7FEE798
:10629000FEE7FEE7FEE7FEE7FEE7FEE7FEE7FEE7D6
:1062A000FEE7FEE7FEE7FEE7FEE7FEE7FEE7FEE7C6
:1062B000FEE7FEE7FEE7FEE7FEE7FEE7FEE7FEE7B6
:1062C000FEE7FEE7FEE7FEE7FEE7FEE7FEE7FEE7A6
:1062D000FEE7FEE7FEE7FEE7FEE7FEE7FEE7FEE796
:1062E000FEE7FEE7FEE7FEE7FEE7FEE7FEE7FEE786
:0462F000FEE700BF06
:1062F40041DF704780B5734D734A74488CB00621F2
:1063040004F0BEF82B685C040DD5714B1B68032B9D
:1063140009DD704B704AD3F80435704900920420AB
:10632400512204F0C9F80DF047F818B16C4A532112
:106334000DF0D8F800F064FA6A48029000F0FAF818
:1063440018B1674A57210DF0CDF80021242203A883
:1063540015F09DFA01238DF80C306349072303A837
:106364008DF80F308DF8143007F0FEF918B15C4A3F
:1063740042210DF0B7F82B6858040DD5544B1B6817
:10638400032B09DD534B594AD3F804355349009282
:106394000420442204F090F801200FF0CBFE18B141
:1063A4004F4A45210DF09EF82B6859040DD5484BF2
:1063B4001B68032B09DD474B4D4AD3F80435474985
:1063C40000920420462204F077F8002007F044F9F4
:1063D40018B1434A47210DF085F82B685A040DD5AE
:1063E4003B4B1B68032B09DD3A4B424AD3F8043577
:1063F4003A49009204205A2204F05EF8EFF3108721
:1064040072B63D4CA168012681B93C4BA660D3F815
:1064140080203B4802402260C3F88000D3F88420E7
:1064240062604FF0FF32C3F884200E4607B962B6AB
:1064340007F04CF918B12A4A5F210DF053F82A4BA2
:106444001B785BB9CDE9033303A82E4B059300F009
:1064540043F918B1224A6A210DF044F807F017F9FC
:1064640018B11F4A6C210DF03DF82B685B040DD563
:10647400174B1B68032B09DD164B234AD3F804354D
:106484001649009204206E2204F016F8A3685BB14A
:1064940056B9EFF3108372B6184A21681160616827
:1064A4005160A66003B962B600214FF4F03000F0E9
:1064B4006FF90222C8214FF4F03000F073F9FFF7AE
:1064C40017FFFCE7DC32002059A40200FFFF0100A3
:1064D400D832002000B00040C2C10300BBC1030099
:1064E4007CC103000100000718330020FBC1030036
:1064F40018C203003AC203004874002000E100E01F
:10650400FC06FFBD8AC2030054C203004BDF704780
:1065140010DF704760DF704769DF704707B501A877
:10652400FFF7F4FF10B103B05DF804FB019802F02B
:10653400F1F9F4E730B53E4D2B688BB05904039064
:106544000DD53C4B1B68032B09DD3B4B3B4AD3F871
:1065540004353B4900920420752203F0ADFF39490C
:1065640003A8FFF7D5FF0446002856D1364AE02396
:1065740082F8163392F816335B09012B54D9042B95
:1065840052D0324B996800294AD01A6842F48002EA
:106594001A602B685A040DD5264B1B68032B09DDA2
:1065A400254B2B4AD3F804352549009204204B226D
:1065B40003F082FF274B0593059A0692002307A94F
:1065C4000120CDE907330993FFF7A6FF044620BB5A
:1065D400CDE90800F823069A079307A9A120FFF73D
:1065E4009BFF0446C8B906A8FFF794FF069A059BCB
:1065F4009A42044611D02B685B040ED50D4B1B68E0
:10660400012B0ADD0C4B0E49D3F804350192124AD2
:10661400009202206D2203F04FFF20460BB030BDE4
:106624004FF480031360B4E742F20204F5E700BFBD
:10663400DC320020D832002000B00040EAC203005F
:10664400D3C20300C168020000E100E048740020E6
:1066540006C30300C832002017C3030003490448DB
:106664004968012300220FF09EB900BF1C330020AB
:10667400103500200378072B10B510D00A2B19D041
:10668400022B21D1114B1B781BB9BDE81040FFF739
:10669400E5BF0F4B1B68BBB1BDE8104018470C4B5E
:1066A4000C48996810220FF0F6F968B1BDE8104063
:1066B4000CF02EBCD0E9021007F00AF808B10CF077
:1066C40027FC024B01221A7010BD00BF19330020B1
:1066D4001C3300201035002010B5164A04465168BA
:1066E400106886B003AB03C31189927A19809A703B
:1066F40094E80700104B83E80700CAB10F4910481B
:106704000FF038F990B90F4B00930C4A0C490E481E
:1067140003AB0FF0FBF848B90C4810F015F901462B
:1067240009480FF013F908B9FFF798FF06B010BD38
:106734000720FBE750C303001C330020283300204C
:1067440044360020796602001035002048330020CA
:1067540010B50C4C206808B90CF0DAFB4FF0A042DD
:106764000949D2F8043509684B40C2F80435236856
:10677400013B236023B90548BDE810400CF0A2BEDC
:1067840010BD00BF84360020883600208C360020DF
:106794004FF0A04311B1C3F80C057047C3F80805C6
:1067A40070470000D0B522B3132922D9114C124BE3
:1067B400206052004FF400404FF4FA760027013A6B
:1067C400E0FB01671A6030464FF47A7200233946C1
:1067D40014F08EFE0022014608480CF02FFE40B94A
:1067E4004FF0A0422168D2F8043523EA0103C2F82D
:1067F4000435D0BD88360020843600208C36002035
:1068040008B54FF0A04303224FF40051C3F83427D6
:10681400C3F808154FF48041C3F83827C3F80815A6
:106824004FF40041C3F83C27C3F80815C3F84027C8
:106834004FF48032C3F808250121054A05480CF0BD
:10684400EBFD18B1BDE808400CF062BB08BD00BF09
:10685400556702005CC30300124B70B50024124E4E
:10686400124DC3F87C414FF0A043A15DD3F810252D
:1068740001238B40934311D00D492B68D1F8042593
:10688400981A48BFD01A43F23333984206D9D1F844
:1068940004352B60074B20461B6898470134042CB1
:1068A400E1D170BD0060004060C30300B036002039
:1068B40000B00040AC3600200620704730B5444B91
:1068C40041F201051B68A84287B0044603F48043E3
:1068D40052D013D801282ED0002B3CD03D4B1B683E
:1068E400002B38DD3C4B3D4AD3F80435019100922E
:1068F4003B496D22012003F0DFFD2CE044F201004E
:1069040084424AD044F202008442E5D11BB3314BA5
:106914001B68002B1FDD304B1088D3F8043503901F
:106924005268CDE901122F4A00922D495F220120BD
:1069340003F0C2FD0FE073B1264B1B68002B0ADD88
:10694400254BD3F80435CDE90112274A2449009296
:10695400542203F0B1FD4FF0A0434FF4F032C3F8DA
:106964001825C3F80C25EFF3108372B61F4A137869
:10697400002B2AD107B030BD002BECD0154B1B687F
:10698400002BE8DD144BD3F80435CDE90112184A85
:106994000092134957220120DBE7002BDBD00D4B7B
:1069A4001B68002BD7DD0C4B1068D3F8043504901A
:1069B4005068CDE90210926801920E4A009208498B
:1069C4006922012003F078FDC5E730BFCFE700BF9F
:1069D400DC320020D832002000B000402AC403007A
:1069E4009DC30300EAC30300AEC30300C832002002
:1069F400C8C3030009C4030007B50023ADF8003081
:106A04000146054B01936A4644F20200FFF756FF24
:106A140003B05DF804FB00BF00CC0300044B00F19D
:106A2400100250F8041B43F8041B9042F9D170473C
:106A3400B4360020044A054B03CA186059603C323E
:106A440003CA9860D960704760000010B436002013
:106A540000487047B4360020064B002203F58071CD
:106A64005A805A6003F8082B8B42F9D1024B1A6002
:106A7400704700BFC4360020C43700200C4BF0B56B
:106A84001B680C4C064620227BB1013B14F83300F2
:106A940050B104EBC3056F88B74202D16D688D42D3
:106AA40002D0013AF0D11046F0BD1F23EEE700BF3B
:106AB400C4370020C4360020084A30B51368084C97
:106AC40004EBC3056960012104F833100B44202B47
:106AD40008BF00236880136030BD00BFC4370020A6
:106AE400C4360020C0F30C038B42084438BFA0F521
:106AF4000050C01A704700000D4B0E4AF0B51E68D6
:106B040000218E4212D0156800230AE052F8044C8A
:106B140004EBC30714F83340844201D17868F0BD14
:106B240001339D42F2D101310832EAE70020F6E751
:106B3400C8370020D037002000B58DB040B99A1C6A
:106B440006D0012201A88DF80420029301F046F832
:106B5400034B186802F074FD0DB05DF804FB00BF30
:106B6400D8370020037810B5044613B97846FFF7E8
:106B740043FFE079431C01209840013810BD000018
:106B8400F8B5037804460F4613B97846FFF734FF87
:106B94000B4B0C4E1A68A069511C02F0070206EB5D
:106BA400C2051960A38AA1886B80FFF79BFFE36984
:106BB400686003F001036B7006F83270F8BD00BF23
:106BC40020380020E03700202DE9F0410E468EB039
:106BD40015461C46074610B97846FFF70DFF16B94F
:106BE4007846FFF709FF636A627802330593A37856
:106BF400A2F10800002B14BF012102210DF10408A9
:106C040042424241434604F10C0002F062FE6378C2
:106C14008DF83430237BADF82050022B16FA85F51D
:106C2400CDE906870B960C950FD1236913B97846E5
:106C3400FFF7E2FE23690993102305A8ADF8283075
:106C440002F043FE0EB0BDE8F0810023F5E700003A
:106C54000E4B10B51B680446806E984704F12C0057
:106C640002F07AF894F84430022B03D104F14C007A
:106C740002F072F820466C22002114F008FE002075
:106C840084F84400BDE8104001F0AABBDC370020C2
:106C940010B590F84430012B8CB0044602D07846ED
:106CA400FFF7AAFE01238DF8043001A8236D029397
:106CB40000F094FF2046FFF7CBFF0CB010BD00009E
:106CC4002DE9F8439946836E04460F46904613B166
:106CD4007846FFF791FE204B48461B689847A0660C
:106CE40068B33E460FCE25460FC50FCE0FC596E8B6
:106CF400070085E807000022B988B869A264A4F8EF
:106D04004690FFF7EFFEB8F1010FA06119D1134BC4
:106D140084F84E201B7D84F84D3084F84F2084F88D
:106D24004C20BB6A23656FF00103A3620C4B6363C1
:106D34000120E46301F054FB84F844800120BDE8A1
:106D4400F8836FF00103A362064B636584F8642043
:106D5400E465054BEBE700BFD4370020243800205E
:106D64007B7102005D7B0200997002001FB5002256
:106D74000B468DF80F20E0B10230086018460DF183
:106D84000F0102F0A4FD9DF80F3093B10B4B1B686B
:106D94005B070ED50A4B1B68032B0ADD094B0A4A15
:106DA400D3F8043509490092042040F2EB2203F0A1
:106DB40083FB9DF80F0005B05DF804FBDC32002076
:106DC400D832002000B00040A5C4030099C40300D9
:106DD4002DE9F04799461378D2F818A0F2B0054689
:106DE4008846144623B191885046FFF77BFE906194
:106DF400A3786278002BA2F1080003AF0CBF022134
:106E0400012104F10C06424242413B46304602F065
:106E140060FD62788DF83C201FFA88F8A8EB020325
:106E24009BB2CDE90875ADF828301D440023ADF8B8
:106E34003030237B0E95022B04BF1022ADF8302096
:106E4400A278C4F818A012AF0D9704F12405002A03
:106E540055D04FF0000A237BC4F824A0022B04BFB2
:106E640023690B93206AE1782A4609F051F9606A94
:106E7400E0B9237B022B05D13146E08909F014FAED
:106E84000028E8D12B4B1B685B0735D52A4B1B68C0
:106E9400052B31DD294B2A4AD3F8043529490092C0
:106EA40006204FF4A56203F007FB25E007A9FFF7CE
:106EB4005DFF0028D6D0A18A6378ADF82A1096E841
:106EC4000300A8EB0308012300228DF828300CAB43
:106ED4000B9283E80300A37D8DF84030236A0E9360
:106EE40007A8636A8DF81C200897ADF824800F93D7
:106EF400CDF8449000F072FE72B0BDE8F087012B2B
:106F0400626209D12946E08909F046F907A9606A55
:106F1400FFF72CFF0028CED100232946A08A636204
:106F240009F03AF907A9606AFFF720FF0028C2D1E7
:106F3400A8E700BFDC320020D832002000B00040B7
:106F4400DCC4030099C40300C37D0A7830B56BB375
:106F5400837822F07F0203F07F031A430A700B78D0
:106F6400027803F07F0343EAC2130B700378E3B1A2
:106F74004378083B5A425A414B7803F07F0343EA73
:106F8400C2134B70858823F07F03C5F38614234313
:106F94004B708479C4F3C10242EA85028A70C379D2
:106FA40003F01F0343EA4413CB7030BD847822F00E
:106FB400400343EA8413DBB20B70C27823F03F032F
:106FC40002F03F0213430B70C9E7000090F844300D
:106FD400012B10B5044602D07846FFF70DFD237B44
:106FE4000A49012BCA6805BFA37D0969A26301FB95
:106FF400032308BFA36301F031FFA16B014404F133
:107004002C00BDE8104001F0BEBE00BF24380020B3
:1070140070B50D4690B0044610B97846FFF7ECFC05
:1070240000212046FFF7ACFD2C22002105A8266D87
:1070340014F02DFC0F2305A88DF8143006968DF856
:107044001C5000F0CBFD2046FFF702FE0C4B1B68E2
:107054005B0712D50B4B1B68032B0EDD0A4B0B4948
:10706400D3F80435029594F844200192084A00921A
:1070740004204FF4D67203F01FFA10B070BD00BFA5
:10708400DC320020D832002000B0004099C4030054
:1070940043C4030008460021FFF7BABF2DE9F04FAF
:1070A40090F84C5087B0044600274FF0010800F1D7
:1070B4000C0BE279AA4203D2384607B0BDE8F08F40
:1070C400A16C08FA05F30B4252D1E37DA571002BA4
:1070D4000CBF0C260826954206FB05FA237808BF48
:1070E400B4F84660CDF804B008BFA6EB0A06002B3E
:1070F40014BF4FF004094FF0010906EB0903039391
:1071040001A8A36A029302F086FD0028D4D1059B4E
:10711400994445B994F84F302BB9A36984F84F804A
:10712400C3F30C03A380E37D8BB994F84E3073B999
:1071340015B17846FFF760FCB4F8461062788A1AF5
:10714400A16E23460846FFF73FFD84F84E8005995B
:107154002046FFF7F9FEA16E32465144484614F02A
:107164006DFB01A802F06FFD6B1C013784F84C30F5
:107174000135EDB29DE791F84430012B10B50C4672
:1071840002D07846FFF738FC94F84D305BB9217B88
:107194000129204603D1BDE81040FFF739BFBDE8FF
:1071A4001040FFF775BD013B84F84D30002384F88F
:1071B4004C302046BDE81040FFF770BF2DE9F04188
:1071C400D47D8AB006460F4615469846002C73D0E7
:1071D4009478002C51D1062939D103784278D0F81B
:1071E400021037489B0103F4FE5343EA920309BAA1
:1071F40022466C2606FB020494F84470012F10D139
:10720400B4F814C0EF89BC450BD1A7889F4208D1BC
:10721400A56C0D43A564E9B903212046FFF7F8FEE8
:1072240015E00132042AE5D1264B1B685B070ED515
:10723400254B1B68012B0ADD244B254AD3F8043562
:1072440024490092022040F2B94203F035F90AB011
:10725400BDE8F0812046FFF785FC854203D1204636
:10726400FFF716FDF3E7002384F84C302046FFF7C0
:1072740015FF2046FFF7AAFEE9E72046FFF73CFC8E
:1072840003460028E3D005F10C012A6A089203C9D9
:10729400AA8AADF8162006AA82E80300AA7D8DF812
:1072A40024202A788DF80840CDE903678DF814204E
:1072B400414602A89847CAE7FFF78AFDC7E700BF1F
:1072C4003C380020DC320020D832002000B00040DE
:1072D40005C5030099C403002DE9F0478AB00546AB
:1072E40004AF808A8846164601F060F9012840F010
:1072F400B7802B7B002B00F0B380022B03D12B69CA
:10730400002B00F0AD8095F91630002BC0F2AA8056
:107314006B782978EA7D3344002976D0002A0CBFA3
:107324004FF4C0724FF480729A42C0F09D80EFF324
:10733400108272B64D4900246C208A4600FB041961
:1073440099F844C0BCF1000F09D102B962B6012218
:1073540029464846FFF7B4FC60B9042405E001342B
:10736400042CEBD1002AF8D162B620461837BD466A
:10737400BDE8F0876C2303FB04A432464146A06EAB
:1073840014F05CFA3A4B1B685B0724D5394B1B6835
:10739400032B20DDB4F84600430008336D46DB08B8
:1073A400A5EBC3039D46344B04AA1E6800239842F0
:1073B40019D8002302F81030304B3149D3F8043582
:1073C4000292304A0192304A0092042040F2F7328D
:1073D40003F072F8AD464846FFF760FE4846FFF7F3
:1073E400F5FD0024C1E7A16EC95C4FEA111C01F050
:1073F4000F0116F80CC002F813C016F801C002EB16
:107404004301013381F801C0D1E7002A0CBF0F22E8
:107414000B229A4228D30133FB6005F10C037B60F5
:10742400381DAB6ABB6002F0F6FB044600289CD111
:107434007969284601F10109FFF786FDEB7D43B127
:1074440032464146484614F0F9F9381D02F0FBFB78
:107454008BE72B46324649464046FFF7B5FBF4E737
:10746400102482E7072480E709247EE73C380020C3
:10747400DC320020D8320020E032002000B000408E
:1074840099C4030033C5030041C50300EFF310831F
:1074940072B6044A04491160044A0549116003B9EB
:1074A40062B67047D437002031B60300DC370020C1
:1074B400C5B6030010B5FFF7E9FF4FF4D8720021F9
:1074C400134814F0E4F9002403F02AFA114B12488B
:1074D4001C602146402214F0DAF9104B1049114A7D
:1074E4009C75C3E90012104910484CF25032C3E9AC
:1074F40002211A6140F604029A8202F083F80C4BCE
:1075040018600C4B0C481C60BDE8104003F0B4BA82
:107514003C38002020380020E037002024380020A8
:1075240080969800F049020020A10700017702002C
:10753400D8370020C83700203D6B020070B50446E0
:107544008CB0002840D00569002D3DD0C369002BC4
:107554003AD08669002E37D05A788DF807201A78E9
:107564000A93037B022B04BF204B9B7D82F0010214
:10757400002B8DF80620828AC07A14BF08230423C6
:107584008DF80530C3F10F0100BB8A421EDC082BC5
:1075940001D1072016E08DF8040094E803000023CD
:1075A4008DF81B3004AB83E803002389ADF8183051
:1075B400A37A8DF81A302946236A099601A80B93F9
:1075C400FFF78AFE0CB070BD0E20FBE701211344C7
:1075D4008DF804100B330C2193FBF1F3013B8DF870
:1075E4000B3000238DF80A30D7E700BF2438002081
:1075F400F0B503468DB00F4600283BD04468002CFC
:1076040038D08569002D35D0027C12F0FD0F33D0BF
:107614000278110632D48DF8062000220A9282687C
:107624000B2A94BF017B012101F001008DF80400B5
:1076340000208DF8050031B1D11DC90801398DF83C
:107644000B108DF80A0001218DF81B1003F11001B5
:1076540003C904AE86E80300D989ADF818101B7F6E
:107664000995214601A88DF81A300B97FFF734FECF
:107674000DB0F0BD0E20FBE71020F9E70720F7E777
:1076840010B5027B012A8AB034D183888DF8182082
:10769400C3F386149B008DF801300B0E8DF8023075
:1076A4000B0C8DF803300B0A8DF804300623049379
:1076B400838AADF81A30002307938DF808308DF8CB
:1076C4001430C389ADF81630837D026A8DF800400A
:1076D4008DF80510CDF80CD0089243B96FF0010174
:1076E40002A88DF82430FFF783FF0AB010BD024BC7
:1076F4005B7DF3E70020F8E724380020F8B51B4E43
:1077040000243746351995F84430012B06D1284614
:10771400FFF7C4FC10B12846FFF758FC6C34B4F5ED
:10772400D87FEFD100257C1994F84430022B17D16F
:1077340094F86430022B13D1A16C2046FFF7A0FF0C
:1077440070B984F864002046A66CFFF70BFA8642F1
:1077540006D120460121FFF713FA2046FFF778FAF5
:107764006C35B5F5D87FDED10120F8BD3C3800205A
:107774002DE9F0470D469AB014469846064600286F
:1077840000F0D381002A00F0D0810DF10809002314
:1077940002934946C9F80430508808F085FD20B9A1
:1077A400002738461AB0BDE8F0872269E1682089CD
:1077B40002F0010203F084F882460028F0D1226925
:1077C400E168208902F0010203F04EF80746A8B1EF
:1077D4002C2251460FA82589246914F058F80E2349
:1077E4008DF83C309DF84230ADF8405064F300030E
:1077F4000FA88DF8423000F0F1F9D2E707AA9446B9
:1078040004F1180E20686168634603C308347445A4
:107814009C46F7D1337859B2C80F8DF810009DF803
:10782400270070B303F07F038DF8123000239942D0
:107834008DF8113037DB99E8030000240D9482E8B9
:10784400030001F09DFE9DF81030002B00F06681CE
:10785400B84ABDF8241023466C20914600FB03244B
:1078640094F844C0BCF1020F37D1B4F814C08C456D
:1078740033D1BDF81420A3889A425FD201F0A2FE4E
:107884008FE7C3F38010002903F03F038DF8120043
:107894008DF813301DDA96F90130002BACBF0423A8
:1078A40008238DF811307178B378890101F4FE5101
:1078B40041EA9301ADF81410DB00F17803F01803EA
:1078C40043EA511301F01F018DF816308DF817109B
:1078D400B1E704238DF81130ADE70133042BBDD19A
:1078E40000249DF8103013B97846FFF785F80B9AF9
:1078F400BDF814100A98BDF824A002F00102FFF7A5
:10790400F1F8DFF84CE200230EEBC30CDCF80410B2
:10791400884219D1BCF80210514515D19CF80110C8
:10792400914211D11EF83330002BA7D004A8FFF7E1
:1079340019F9014604A8FFF7A3FE9FE7D1D9052151
:107944002046FFF765FBCBE70133082BDCD1002C85
:1079540048D19DF827309DF81720002B0CBF0C232D
:10796400082302FB03330CBF4FF4C0724FF4807240
:10797400934227D9704A1268520710D56F4A126889
:10798400002A0CDD6E4A6F49D2F8042501936E4B30
:1079940000930120134640F2632202F08DFD002182
:1079A40004A8FFF76DFE2C2200210FA813F06FFF2F
:1079B4000F238DF83C300FA802238DF8443000F0DB
:1079C4000DF95BE722466C2101FB029494F8440014
:1079D400002840F09380022204A92046FFF770F9A2
:1079E4000028DCD0544B1B685B0711D5534B1B6834
:1079F400032B0DDD524B9DF81620D3F8043501926C
:107A0400524A00924F4940F2A722042002F054FD4A
:107A140094F84430022B02D07846FEF7EDFFDFF8ED
:107A24003491D9F800A001F019FA0AEB000104F12D
:107A34002C0001F0A8F9237B012B1AD194F86430AF
:107A4400BBB994F84430022B02D07846FEF7D4FF39
:107A5400D9E9013299F8151002FB013901F0FEF958
:107A640000EB090104F14C0001F08DF9012384F8C5
:107A740064309DF81630A16C0120984001427FF4D7
:107A8400FDAE0143E079A1649842A5F104029DF89A
:107A9400271038D1002914BF08210C2103FB012130
:107AA400A56EA4F846100CBF0C20082000FB035060
:107AB400311D13F0C3FE2046A56CFFF753F8854231
:107AC4007FF4DCAE022384F86430A16C2046FFF717
:107AD400D7FD434605462246B4F84610A06EFFF78C
:107AE4006DFB002D7FF4CAAE204684F8645001215A
:107AF400FFF746F82046FFF7ABF8BFE60132042A49
:107B04007FF462AF4BE791B90C2A02D1A56E1046FF
:107B1400CCE704212046FFF77BFAAFE6434604AAEC
:107B2400691E701CFFF74AFBA8E60E2739E6082AEF
:107B3400EBE700BF3C380020DC320020D8320020C4
:107B440000B0004099C40300B8C40300CCC40300CF
:107B5400E03700202438002091F84430022B10B57F
:107B64000C4602D07846FEF747FF022384F86430BF
:107B7400A16C2046FFF784FD08B984F8640010BDA9
:107B84002DE9F04188460746E8B1124E3468C4B97D
:107B94002546454507D1104BC3E9007501233360E1
:107BA4002046BDE8F08107EBC5035B685BB117F8BD
:107BB4003500030609D450B1FEF79EFF38B90135EC
:107BC400E7E70424ECE70E24EAE70B24E8E70F24B4
:107BD400E6E700BFC8370020CC370020F8B50746D9
:107BE40010B97846FEF708FF0F4E346894B10F4D74
:107BF40001232B7023791BB954F8043C3846984769
:107C04002468002CF6D12B78022B03D13168064C62
:107C140009B92970F8BD0B790E6813B1204602F03A
:107C2400D0FB3146F4E700BFF0390020EC390020E6
:107C340010B5044610B97846FEF7DEFE0023237221
:107C4400211D0248BDE8104002F09ABBF039002023
:107C540010B5044610B97846FEF7CEFE074A1378ED
:107C6400013B012B04D8022313700123237210BD9E
:107C7400211D0348BDE8104002F0A3BBEC390020ED
:107C8400F03900200B888268D25A073222F00302AE
:107C9400134402889BB2043A934288BF00230B80AA
:107CA400704710B5044610B97846FEF7A5FE238840
:107CB400042B02D87846FEF79FFE2088043880B251
:107CC40010BD70B5064615460C4611BB7846FEF746
:107CD40093FEFEB17846FEF78FFE6B1E2344B3F18C
:107CE400005F34D94FF08052D2F80C2102F5002203
:107CF400B3EB822F2ED2042D02D87846FEF77CFEF9
:107D040035800023043D7380B380B4602580A37064
:107D140070BD10B97846FEF76FFEB4F1005F12D95A
:107D24004FF08053D3F80C3103F50023B4EB832FC9
:107D3400D3D34FF08053D3F80C3103F50053B4EB95
:107D4400832FC7D2C9E7B4F5000FF2D8C2E7B3F561
:107D5400000F08D94FF08052D2F80C2102F50052DE
:107D6400B3EB822FC7D37846FEF746FEC3E737B599
:107D7400044610B97846FEF73FFE6288A3681344B0
:107D84009B78012B02D17846FEF736FEA288A368C1
:107D94001344EFF3108572B69A78A168032A11D1BF
:107DA4005B1A02A9204621F8023DFFF76BFFBDF8DC
:107DB4000620A3686280134400229A7005B962B653
:107DC40003B030BD00228A706280A280F6E770B5ED
:107DD4000E461546044610B97846FEF70DFE16B950
:107DE4007846FEF709FE6288A36813449B78012B4A
:107DF40002D17846FEF700FE002D31D021880B1FFA
:107E04009BB29D422CD86088A388EA1D22F003020D
:107E1400984292B204D21B1A9A420FDD042015E054
:107E240015D9091A914209D29A42F7D8032981BF78
:107E3400A3681B1804229A70002363806288A168D7
:107E44008B188D5201229A700020336070BDA26895
:107E540013449B78002BE1D193706380A380EDE7FA
:107E64000920F3E770B50D461646044610B9784666
:107E7400FEF7C2FD15B97846FEF7BEFDAB78012BBF
:107E840002D07846FEF7B8FD2B88B34202D278467A
:107E9400FEF7B2FD16B97846FEF7AEFD0223AB70CD
:107EA400E1182E802046FFF7EDFE6288A3889342F6
:107EB4001FBFA3689B1800229A7070BD38B50D4689
:107EC400044610B97846FEF797FD15B97846FEF7D3
:107ED40093FDA288A36813449A78042A06D1211D2D
:107EE4002046FFF7CFFEA288A36813449A78022A9B
:107EF40003D0032A06D0052003E003229A702B60E6
:107F0400002038BD7846FEF777FDF9E713B504463F
:107F140010B97846FEF770FDA288A36813449978D7
:107F2400042909D102A9204621F8022DFFF7AAFE4F
:107F3400BDF80620A36813449878831E584258411C
:107F440002B010BD13B5044610B97846FEF754FDCF
:107F5400A288A36813449878C21E012A04D9831EF8
:107F64005842584102B010BDA2680DF106019B1A97
:107F74002046ADF80630FFF785FEBDF80620E8E799
:107F840070B50D46044610B97846FEF735FD15B9AF
:107F94007846FEF731FDAB78012B17D0032B20D1A7
:107FA400A288A36813449D4202D07846FEF724FDBC
:107FB4000026AE70211D2046FFF764FEA288A36848
:107FC40013449B78042B00D1A68070BD6288A368FB
:107FD40013449D4202D07846FEF70EFD0023AB7099
:107FE400F3E77846BDE87040FEF706BD024B18780B
:107FF400003018BF01207047F439002010B5044642
:1080040010B97846FEF7F8FC63681BB123680BB11E
:10801400A36813B97846FEF7EFFCA3685A1E1A4208
:1080240002D07846FEF7E8FC0023C4E9033310BD10
:1080340038B50546F0B1E9B18368EBB1EFF31084CC
:1080440072B6D0E902302A691A44824203D104B9D3
:1080540062B604240CE0013B0340D5E9000202FBB4
:10806400030013F0EBFBEB680133EB6034B962B649
:10807400204638BD0E24FBE70924F9E70024F7E77E
:1080840070B50E460446F0B18368F3B1EFF3108582
:1080940072B6D0E90331994203D105B962B6052518
:1080A4000FE04EB18368013B0B40D0E9001230462B
:1080B40002FB031113F0C2FB23690133236135B9B9
:1080C40062B6284670BD0E25FBE70925F9E70025B1
:1080D400F7E700000F4B10B54FF48052002118460B
:1080E40013F0D5FB0C4A03461060282400F130023B
:1080F400002100F57F6022F8304C22F82E1C42F853
:108104002C2C30328242F6D13822C3F8C02FC3F867
:10811400C41F10BD103A0020104A00207047000010
:1081240008B5064B14220021184613F0B0FB044A8C
:10813400002111704FF08072426008BD404A002057
:10814400194A002010B50B4C14220021204613F0CC
:108154009EFB00F083FE084B084A09499A600022FE
:108164005860C3E903125A61064B1A704FF08073CA
:10817400636010BD404A00201C4A0020998202001E
:1081840000879303544A002010B5074C23784BB959
:108194000648074B036000F0BBFB064800F0BAFD3D
:1081A4000123237010BD00BF184A0020344A002068
:1081B400FD8202001C4A002010B58CB001F0E0F9E9
:1081C400124A117B1346F9B9917BE9B9118A41F23C
:1081D4008262914202D80E4A1278AAB19968049137
:1081E40001228818002498600CA81A731C820223A8
:1081F40000F82C3D8DF808200394FFF7EFFC01F004
:10820400E1F920460CB010BD0824F8E7404A0020EC
:10821400544A002010B58CB001F0B2F91B4A547BCB
:108224001346BCB1917B61BB118A41F282629142D7
:1082340002D8174A127832B3197B00225A7329B133
:1082440001290CD07846FEF7D7FB03E0FFF7B4FF13
:108254000028F7D101F0B6F920460CB010BD4FF05C
:1082640080711A6059601A731A820CA89B6804936F
:10827400022300F82C3D8DF808200392FFF7AEFC92
:10828400E8E70024E6E71446E4E700BF404A00209C
:10829400544A002010B5164C237B2BB1012B12D06D
:1082A4007846FEF7A9FB18E0228A41F282639A42DB
:1082B40002D8104B1B7883B1FFF7ACFF638A0BB174
:1082C400013B638210BD228A41F282618A4208D84E
:1082D400084B1B780BB1FFF79DFF238A01332382E0
:1082E400ECE742F2B0118A42F5D96373E4E700BFC8
:1082F400404A0020544A002010B50378042B8CB067
:108304000FD143681B7863B11F4B44691A7B017E0C
:10831400002A32D15A8A2ABB01299A6803D094428E
:1083240004D80CB010BD511C8C421DD92A32944281
:10833400F7D89A7B002AF4D181681A604FF08070D4
:108344005860124818610CA89C605A731A7302236F
:10835400103100F82C3D04948DF808200391FFF7A8
:108364003DFCDEE70129DCD19A6801329442D8D180
:1083740001225A73FFF74EFFD3E7012AD1D1012915
:10838400CFD09A68F2E700BF404A00200000062DD3
:1083940038B5104CD4E900239A42054615D2207B07
:1083A4000D4B0E49012808BF0B469A4203D3012303
:1083B4006373FFF72FFFEFF3108072B623685A1C24
:1083C40022602B6018B962B638BD0F20FCE700208C
:1083D400FAE700BF404A0020FFFF7F0000E0FF00F3
:1083E4000C4A10B51368144628B101200A49034405
:1083F4008873136010BD13B97846FEF7FDFA23683D
:10840400013B2360002BF5D1034ABDE81040937370
:10841400FFF700BF144A0020404A002000B58DB089
:108424000323ADF808000CA88DF8102000F82C3DAB
:108434000391FFF7D3FB0DB05DF804FB014B986883
:10844400704700BF404A0020034B98681B7B012BF8
:1084540008BF00F1FF307047404A0020044B9B687E
:108464005840C20748BF03F1FF331846704700BFA6
:10847400404A0020014B187B704700BF404A00204F
:10848400084A137810B553B901241470064A1173BD
:108494004FF08071906013605160184610BD082041
:1084A400FCE700BF194A0020404A00202DE9F843A8
:1084B4001D4CDFF8789000260221204601F06EFE64
:1084C4005FFA86F805460027ADB967B1294620460C
:1084D40001F0CBFE082806D154F8043C1BB12A460F
:1084E4004946404698470136032E04F1BC04E3D1C3
:1084F4000120BDE8F88354F8043C34F80C2C13B183
:1085040029464046984734F80C3C02210133204662
:1085140024F80C3C01F05EFE0221204601F03EFEF0
:1085240001370546D0E700BF684A00204CC5030068
:1085340070B51B481B4C01F065F81B4B186004F127
:108544001C0341F203060825636104F10C0004F1E5
:1085540018032361A681A57301F063FE04F1D80317
:10856400C4F8D03004F1C80004F1D403C4F8CC300A
:10857400A4F8C86084F8CA5001F053FE04F5CA7325
:10858400C4F88C3104F5C873A4F8846184F8865166
:10859400C4F8883104F5C270BDE8704001F041BEF2
:1085A400B18402005C4A0020584A002010B1800BBC
:1085B400014B185C704700BF5CC5030012DF7047B5
:1085C400137813B563B1042B0CBF0724002410F8EF
:1085D400013C292B43D005D8162B4BD002B010BD3B
:1085E400547DF4E72A2B1BD02B2BF7D1022CF5D189
:1085F40010F8021C0139C9B202F0B8F90028EDD014
:10860400234B1B685B06E9D5224B1B68012BE5DD78
:10861400214B224AD3F80435009201909D2219E09F
:10862400022C01D0072CD9D110F8021C013901F019
:108634002DFB0028D2D0164B1B685A06CED5154BFD
:108644001B68012BCADD144B154AD3F8043500927C
:1086540001908A221349022001F02EFFBEE7022C6A
:10866400BCD110F8021C0139C9B202B0BDE81040F7
:108674000EF088B901884FF6E4639942AED110F840
:10868400021C0230033902B0BDE81040FEF714B9F1
:10869400DC320020D832002000B0004001C60300C4
:1086A400D8C50300CDC5030070B58AB008F0FEFF3D
:1086B4000446002834D0002306468DF810300FCE2F
:1086C40005AD0FC533682B60627D052A0CD9207D6A
:1086D40000F00F03072B07D004AB063A04F11D0189
:1086E40000F00F0007F0E4FE114B1A68AAB104ABC6
:1086F4000393237DC3F303038DF80430637D062BBA
:1087040089BF063B00238DF8053004F11D0398BF93
:108714008DF80530029301A89047204608F0B0FF79
:1087240008F0DCFF80F00100C0B20AB070BD00BFE9
:10873400944C0020F7B52E4F3A780546002A4CD1C8
:1087440000284CD0067A06F0F703072B49D1C068FD
:1087540000283FD0FEF762F90DF10700FFF72EFF66
:108764000446A0BB9DF80730012B3CD1FEF774F9F9
:1087740000F0BEFA304600F0BBFEE87800F034F9B1
:1087840000F00CFE08F08CFA1A4809F03FF808F0E3
:1087940003F8FFF7CDFE00F0C3FC03F0FDF8284614
:1087A40001F020FA2846FEF785FE02F0CFFB2846AA
:1087B400FFF790FCFEF780F808B1062815D10E48A3
:1087C40007F048FE0D4B00221A6001233B7020463F
:1087D40003B0F0BDFEF72EF9BEE70824F7E70E2438
:1087E400F5E70724F3E70224F1E70446EFE700BFC7
:1087F400914C0020AD860200CC320020944C002025
:108804001C4B1B7837B5002B30D01B4D2A786ABB24
:1088140000F0E8FD10B17846FEF7EEF808F062FAD1
:1088240030BB08F0FDFE01F0EFF9FEF745F8044611
:10883400C0B1062816D0114B1B685B040FD5104B32
:108844001B68012B0BDD0F4B0F4AD3F804350F497E
:108854000190009202204FF4C47201F02DFE2046D4
:1088640003B030BD01232B700024F8E70824F6E799
:108874000446F4E7914C0020904C0020DC320020A8
:10888400D832002000B0004075C50300CDC50300F8
:1088940038B5084D2B7853B108F032FA044620B9A4
:1088A40008F0D0FE00F0EEFD2C70204638BD082400
:1088B400FBE700BF904C00200F4B1B685B0437B5EF
:1088C40004460D4610D50D4B1B68062B0CDD0C4BD6
:1088D4000C4AD3F8043501920B4A00920B494FF429
:1088E400D772072001F0E8FD2946204603B0BDE811
:1088F4003040FEF723BE00BFDC320020D832002017
:1089040000B0004060C5030045C50300CDC50300A9
:10891400FFF78EB908B500F025FD002008BD7047AB
:10892400044B1A680132B2F1704F08BF01221A6079
:1089340018687047984C002010B5044610B9784662
:10894400FEF75AF80023C4E9003310BD38B50D46CC
:10895400044610B97846FEF74FF815B97846FEF785
:108964004BF800236B60EFF3108372B6226822B9D0
:108974002560656003B962B638BD62685560F8E782
:1089840010B5044610B97846FEF736F8EFF31082B6
:1089940072B6206808B143682360236803B9636032
:1089A40002B962B610BD10B5044610B97846FEF798
:1089B40023F8206810BD35DF7047000008B54FF07C
:1089C400FF30FFF7F8FFBFF34F8F0549054BCA6827
:1089D40002F4E0621343CB60BFF34F8F00BFFDE7A7
:1089E40000ED00E00400FA0507289ABF024B33F8B3
:1089F4001000FA20704700BF2CC60300024B5868D1
:108A0400103840B2704700BF00ED00E0084A202350
:108A140090FBF3F352F82330424202F01F0200F0BD
:108A24001F0058BF504223FA00F000F001007047C5
:108A340000E100E046DF704730B501F11003103269
:108A4400103013F8014D12F8015D8B4284EA0504DD
:108A540000F8014DF5D130BD2DE9F04F91B002F190
:108A64000F0504AE98468A462D11034600F1100402
:108A7400B14618685968374603C70833A3423E46CF
:108A8400F7D102F00F04002D58D0002C56D1012745
:108A9400BB461022002108A812F0F9FE4846FFF751
:108AA400C9FF01220DF13F0110AB13F9100D1E4651
:108AB40093F800C04FEA4C0C5FFA8CFC83F800C0BA
:108AC40013F801EF4CEADE1C994203F801CCEFD114
:108AD4009DF83F305B00DBB20028B8BF83F087030A
:108AE4008DF83F30531C9B454FF00202DCD2013D10
:108AF4000AEB051137B30CAA6846FFF79DFF102255
:108B040000210CA812F0C3FE0024AC422CDB324638
:108B1400694608A8FFF790FF4846FFF78BFF10AAA5
:108B2400334603CB9342C8F80000C8F804101E462D
:108B340008F10808F4D111B0BDE8F08F00274FF018
:108B4400020BA6E72246684612F078FE10AB2344D7
:108B5400802203F8402C0134102C02D10CAA69465F
:108B6400CAE70DF80470F6E70AEB0412314608A8C8
:108B7400FFF762FF4846FFF75DFF0134C5E70000D9
:108B8400094B1A68824204D142691A6000230370B7
:108B940070471B68002BF9D05A69824202D142699E
:108BA4005A61F3E71346F5E7A04C002038B5124BA1
:108BB4001A6804462AB11A6845685268AA1A002A33
:108BC4000DDA1A6862611C609A88013292B29A8046
:108BD40012B97846FDF710FF0123237038BD1968D8
:108BE4004A691AB15068401B002802DB62614C617B
:108BF400EAE71146F4E700BFA04C0020014B1868D7
:108C040000F01EBD9C4C002008B50E4B1A68BAB18A
:108C14001A685268821A12F1640F43BF19680A4A2B
:108C24004968094A56BF00F1640102230223012066
:108C340000F0CCF820B17846BDE80840FDF7DCBE72
:108C440008BD00BFA04C0020018C02002DE9F041BA
:108C540000F004F9254E054637464FF00008336806
:108C640023B133685B685B1B642B06D400F0F6F811
:108C7400FFF7CAFF0120BDE8F08134682378012B97
:108C840002D07846FDF7B8FE63693B60BB88C4F840
:108C940014809BB25A1E92B2BA8013B97846FDF77B
:108CA400ABFEA36813B97846FDF7A6FE0223284657
:108CB40023702169A368984700F0D0F82378022B29
:108CC4000546CCD1E2680AB92270C8E763686FF040
:108CD4006301891A1344091AD018C14204D4636089
:108CE4002046FFF763FFBAE70346F5E7A04C0020F0
:108CF40008B5054B054800221A605A6000F082FC52
:108D0400034B186008BD00BFA04C0020518C02002A
:108D14009C4C002010B5044600F06EFD10B9784656
:108D2400FDF76AFE14B97846FDF766FEA36813B929
:108D34007846FDF761FE2378012B02D17846FDF7D2
:108D44005BFE002363612046FFF730FF00F086F8E6
:108D5400BDE81040FFF758BF10B5044600F04CFDC5
:108D640010B97846FDF748FE14B97846FDF744FE7D
:108D74002046FFF705FF0023636100F06FF8BDE8AC
:108D84001040FFF741BF38B504460D4600F034FDEE
:108D940010B97846FDF730FE14B97846FDF72CFE7D
:108DA4002046FFF7EDFE002363616560FFF7FEFEDA
:108DB40000F054F8BDE83840FFF726BF024B1B68AB
:108DC40003B962B6704700BFCC4C0020022838B506
:108DD40030D833F003042FD1EFF31084174D2C60F7
:108DE40072B6174C44F82020164A42F82010164A4E
:108DF4001354164B002243F82020154B1B78ABB1BB
:108E0400144B1B68CC1A48BF5C1A830003F18043DF
:108E140003F500430022C3F840211030012202FA76
:108E240000F00D4AC2F80403C3F84045FFF7C6FF3B
:108E3400002038BD0720FCE70A20FAE7CC4C0020CC
:108E4400AC4C0020C04C0020A84C0020D44C002086
:108E5400B84C0020BC4C00200080004008B5EFF363
:108E640010830B4A136072B60A4B1B786BB10A4B22
:108E74000022C3F84C210122DA64D3F84C05074BD5
:108E84001B681844FFF79AFF08BD054B1868F9E7FB
:108E9400CC4C0020B84C002000800040BC4C00208A
:108EA400D04C00202DE9F047DFF87880DFF8789087
:108EB4000024A70007F1804505F50045D5F84031A9
:108EC40003B3D8F8042304F1100A22FA0AF2D207F1
:108ED40018D557F8096016B97846FDF78DFD0023BB
:108EE40049F80730012303FA0AF3C8F80833FFF7F7
:108EF400B5FF0B4BE35C9B07014608D5B047002345
:108F0400C5F840310134032CD3D1BDE8F087304695
:108F140000F024FB0028F2D07846FDF76DFDEEE763
:108F2400A84C002000800040AC4C00202DE9F84300
:108F3400314FDFF8E49005460026B846B40004F14A
:108F4400804303F500430022C3F84025C3F84021C1
:108F5400D3F840313A6859F8263005F17801981A67
:108F640048BFD01AB1EB020C48BFA2EB010C234955
:108F7400844562582AD93AB100236350204BF35CEC
:108F84009B0719D5284690471E4BE2581AB1012178
:108F940011600022E2500136032ECFD11A4B1B6818
:108FA4001BB91A4B4FF480721A60194BC8F8005061
:108FB40001221A70BDE8F8832946104600F0CEFA63
:108FC4000028E1D07846FDF717FDDDE7002AE2D05E
:108FD40004F180445A1B04F5004448BFEA1A0023F4
:108FE400C4F8403106F1100101238B400949C1F84E
:108FF4000433C4F84025CEE7BC4C0020AC4C002020
:10900400A84C0020D44C0020CC4C002000E100E00F
:10901400B84C002000800040C04C002070B50023F4
:109024000F49104C104D1A465E5CF60742BF5A5465
:1090340044F8232045F823200133032BF4D10B4BB0
:1090440018600B4B00221A700A4B4FF0FF32C3F822
:109054000823094B4FF48072C3F8802170BD00BF10
:10906400A84C0020AC4C0020D44C0020D04C002054
:10907400B84C00200080004000E100E030DF704781
:1090840031DF704710B5D0E900238468C168A2EBD2
:10909400731283EAF43303600C44134411444460B0
:1090A4008160C360184610BD37B50C46054610B93B
:1090B4007846FDF7A1FC00239C4201D803B030BDE3
:1090C4000DF10700FFF7DAFF9DF807100029F7D02C
:1090D400E21A914288BF8DF80720E8189DF807101E
:1090E400FFF7CEFF9DF807201344E5E737B50446A4
:1090F40002A8002340F8043D0421FFF7D5FF074BE5
:109104002360019BE360C4E9013314252046FFF783
:10911400B9FF013DFAD103B030BD00BFED5EEAF105
:10912400704748DF704749DF70474ADF70470000E7
:10913400064A032313751168054B936140F6D86200
:10914400914288BF43F2B0629A6070470C4D002090
:109154002C4D0020064AD2E90030064A1268184411
:10916400283278385343044AB3FBF2F3C01A7047E9
:109174000C4D0020284D002040420F00274B10B515
:109184009A6928B119681C69114401341C61196079
:10919400D96801240131E24001291C75D9609A6122
:1091A4001C6821D002292DD09A691D4914448C428F
:1091B40003D840F6D7618A422FD8012258685A72E0
:1091C40000241C75FFF7B2FE07F048FEFFF7C2FF4C
:1091D40003230146134A2046FFF7F8FDE8B1784619
:1091E400BDE81040FDF708BCB2F5FA7F03D130B9F1
:1091F40000229A61D8E740F6D8618A42D4D840F672
:10920400D862F6E71A69022A02D1054A121BF0E76E
:10921400012AC9D10028EBD0C6E710BD0C4D0020AF
:1092240080969800359102002DE9F843444C454D51
:10923400012323722B781BB1434B1B78002B66D080
:109244000022227504285ED8DFE800F00358555345
:109254004F00C4E903223D4BA17AD3F804653C4D89
:109264002368002761B3A2721A4661680A446260E7
:109274000121384A2175384992682260002B08BFC1
:109284000B46991AB1F57A7FC5E9006729D39A424A
:1092940027D8A161237D023B012B0CD8637A3BB113
:1092A40007F0F8FDFFF756FFFFF7B8FE00236372DF
:1092B400254B00221A70002323722848BDE8F88346
:1092C400D5E90001264AB6EB000828F07F40A0FB50
:1092D4000289002102FB01994FEAD83242EA49424D
:1092E400C3E74FF47A73A361D4E70120FFF746FF85
:1092F400D0E70020FAE707F06DFDCBE7FFF7D2FDDA
:1093040007F09AFDC6E77846FDF776FBC2E7FFF75C
:10931400A5FD6368C01A2B782060012B05D0022BB1
:1093240009D07846FDF768FB02E002222275A37299
:1093340000232B70AEE703232375064BA361F7E7E5
:109344000C4D00203D4D00203C4D002000B000405D
:10935400404D00202C4D002080969800204D002088
:1093640040420F00043808B5032814D8DFE800F0A1
:109374000A110502FFF7D7FE68B17846BDE8084038
:10938400FDF73ABB044840F6D8638360FFF7CDFE8F
:10939400F2E70148FAE708BD2C4D00200C4A4FF4CF
:1093A40080710023918043F2B06C43F698211370CE
:1093B400C2E902C1074A1060074A1370074A1370D2
:1093C400074A0121137253721360917253607047FC
:1093D4002C4D0020284D00203C4D00203D4D002008
:1093E4000C4D002008B50548FFF79BFE20B9044842
:1093F400BDE80840FFF799BE08BD00BF2D920200EA
:109404002C4D0020064B1B7D032B07D0054B1878F1
:10941400013801288CBF00200120704701207047CB
:109424000C4D00203D4D0020014B5868704700BF93
:109434000C4D0020064B587A10B540B1FFF78AFE58
:109444000446FFF70BFD0346201A48BF181B10BD46
:109454000C4D0020014B187A704700BF0C4D0020C2
:10946400EFF3108372B6054A527A22B1044A4FF4DC
:109474008071C2F8001103B962B670470C4D002028
:1094840000E100E0024B01221A70FFF7E9BF00BFC0
:109494003D4D0020064B19781A4631B128B90549CB
:1094A400097811B11870FFF7DBBF1070704700BF67
:1094B4003C4D00203D4D0020044B1B780F2B1EBF5C
:1094C400034B4FF48022C3F8002170478C4E0020D8
:1094D40000E100E008B501460448FEF7A9FD10B913
:1094E400FFF7EAFF08BD0420FCE700BF484D002059
:1094F40010B50C4C0C4B20700C4803601023C0E9D1
:109504000133FEF77BFD0A48FFF716FA23780F2B89
:1095140007D0084A5B01DBB282F812334FF4802390
:10952400136010BD8C4E00205C4D0020484D00207F
:10953400904E002000E100E030B50D4685B00446B1
:1095440010B97846FDF758FA012368468DF80030C3
:10955400CDE90145FFF7BEFF05B030BD30B50D467E
:1095640085B0044610B97846FDF746FA00236846EC
:109574008DF80030CDE90145FFF7ACFF05B030BDF3
:1095840010B5EFF3108472B60B490A68531C0B60D4
:109594005AB90A4B1B780F2B04D0094B4FF4802285
:1095A400C3F8802004B962B610BD002BFAD1784606
:1095B400FDF722FAF6E700BF5C4E00208C4E002037
:1095C40000E100E038B5EFF3108572B60A4C236869
:1095D40013B97846FDF710FA2368013B23603BB9C1
:1095E400064B1B780F2B1EBF054B4FF480221A60CD
:1095F40005B962B638BD00BF5C4E00208C4E002019
:1096040000E100E038B5054610B97846FDF7F4F9F5
:10961400094C2368082B02D97846FDF7EDF9EFF3DE
:10962400108372B62068421C2260044A42F820501B
:1096340003B962B638BD00BF604E0020644E0020FE
:109644000E4B1B68834210B5044602D87846FDF7DA
:10965400D3F9EFF3108172B6094A6009012304F0CB
:109664001F0403FA04F452F82030234342F8203054
:10967400FFF722FF01B962B610BD00BF604E0020A3
:10968400884E002070B50D461646044610B978463B
:10969400FDF7B2F915B97846FDF7AEF9EFF310838B
:1096A40072B60022C4E902562274246003B962B679
:1096B40070BD000070B5044610B97846FDF79CF9FA
:1096C400A36813B97846FDF797F9EFF3108672B6DD
:1096D400237C03F0FF055BB901230648237421466C
:1096E400FFF734F9FFF7E8FE284606B962B670BD05
:1096F4001120FAE7904E002010B5044610B97846C0
:10970400FDF77AF9207C10BD2DE9FF47334E3378FD
:1097140013B17846FDF770F90125DFF8D080304F9A
:10972400DFF8CC9035700024D8F80030A34212D86A
:109734002C48DFF8B080FFF723F9002760BB2A4CE0
:1097440069462046FEF79CFCA0B3002328463370EC
:1097540004B0BDE8F087610904F01F0057F8213018
:10976400C340DB0716D5EFF3108372B6012202FA69
:1097740000F057F8212022EA000247F8212003B91B
:1097840062B659F824309847824618B92046FFF744
:1097940057FF55460134C7E70468237C13B978465C
:1097A400FDF72AF9D4E90230984727744046FFF7B9
:1097B400E7F8C3E79DF80030012B09D008D3022B4A
:1097C400BED1019B002BBBD0DDE902019847B7E76E
:1097D400019B002BB4D002989847B1E7984E002023
:1097E400884E0020904E0020484D0020604E0020FE
:1097F400644E0020FFF788BF07B5FFF7FFF88DF828
:1098040003009DF803301749F02B0DD10B780F2B73
:1098140025D01220FFF7FAF880F00100C0B200F062
:10982400010003B05DF804FB9DF803305BB2002B2C
:10983400ADBF03F1604303F00F030B4A03F561432B
:10984400B4BFD35C93F800335B090193019A0B789E
:10985400934204D0019A9342DBD30020DFE7012036
:10986400DDE700BF8C4E002014ED00E046DF7047BA
:10987400F0B58DB06D460B46044600F1100C2F4632
:10988400206861682E4603C6083464453546F7D11E
:1098940004AD03F11006186859682C4603C4083354
:1098A400B3422546F7D13846FFF7E0FF08AC0CADCC
:1098B400234603CBAB42106051601C4602F1080200
:1098C400F6D10DB0F0BDFFF7C7B800F02EBF00F021
:1098D40064BF30B4032954D8DFE801F00225254ED3
:1098E40000241C70817A5A7861F30602C17A61F30C
:1098F400C7125A70C1680D04C1F3074205F47F050D
:1099040001F47F412A430A43C2F307219A70120CDF
:109914001A71D9700189DC710A0A42EA0122A3F89A
:1099240005201C7222E01970597801F0800162F35D
:10993400C7115970C1680C04C1F3074204F47F04D1
:1099440001F47F4122430A439A70C2F30721120CA7
:109954001A71D97001890A0A42EA01224188A3F8DE
:1099640005200A0A42EA0122A3F80720026912BA72
:10997400C3F8092030BC7047032200241A705C70BD
:10998400B8E7784630BCFDF737B87FB50E461546C4
:10999400044600B112B97846FDF72EF810220021D2
:1099A400684611F074FF2B46324621466846FFF79D
:1099B40053F804B070BD2DE9FF410B9D884616464F
:1099C4001C46074610B10AB103B115B97846FDF734
:1099D40013F86B46424639463046FFF73DF82B46AE
:1099E4009DF8282021466846FFF736F804B0BDE804
:1099F400F08100002DE9F04F87B08B4600AF15468B
:109A04001E46044608B101B113B97846FCF7F4FFC9
:109A140005F118036A46DB08A2EBC3039D46294BF4
:109A24000421186878606A467818FFF7AEFF07F1DA
:109A34000803214610226846FFF70EF82A465946C5
:109A4400684611F0FBFE0123EA180DF8053092B2C6
:109A54006B46694607F10800FEF7FEFF9DF80F30DC
:109A6400344603F07F0304F8013B2A46594605F1C6
:109A7400100905F1110A04A811F0E0FE1FFA8AFA90
:109A840002230DF8093052462346694607F10800BF
:109A9400FEF7E2FFE84623466A46113653F8041BF4
:109AA40042F8041BB342F9D1032208F8092007F154
:109AB400080052464146FEF7CFFF1C37BD46BDE8BD
:109AC400F08F00BF3CC6030070B50D4688B0064653
:109AD40000B111B97846FCF78FFF114C04212068BE
:109AE400019004AA0DEB0100FFF74FFF04AB3146D0
:109AF40018461022FEF7B0FF234602A953F8040FBC
:109B040002901B798DF80C3004AB18460522FEF741
:109B1400A3FF06AB03CB2860696008B070BD00BF2B
:109B240040C6030070B50D4686B0064600B111B9B3
:109B34007846FCF761FF0F4C54F8040B009002AA1E
:109B440068460421FFF721FF02AB31461846102274
:109B5400FEF782FF2068019002AB042218460DEB49
:109B64000201FEF779FF9DF8173003F03F032B70D5
:109B740006B070BD49C6030030B50268037BD17AD4
:109B840087B000298DF8083083680CBF04210821B0
:109B940009330B440446CDE9033201A94368059314
:109BA40002A800F06FFFD0B1237B012B0ED02568F3
:109BB400FEF74AFC286120680C30FEF7E9FB0546F5
:109BC40020B100F0D1FF284607B030BD21680198CC
:109BD40000F071FA019B093323610025F3E70425A2
:109BE400F1E7000008B5074B40B91860FEF7AAFA80
:109BF400FEF794FABDE8084001F08CBB42681A6095
:109C0400F4E700BF9C4E002008B5FEF7BDFABDE89E
:109C1400084001F0BDBB10B5044610B97846FCF706
:109C2400EBFE236813B97846FCF7E6FE23685B690C
:109C340013B97846FCF7E0FE002323732046BDE801
:109C44001040FFF799BF10B5044610B97846FCF7E9
:109C5400D3FE236913B97846FCF7CEFE236813B903
:109C64007846FCF7C9FE23685B6913B97846FCF7AC
:109C7400C3FE206900F07CFAA16802460023206834
:109C840000F0DAF9BDE8104000F048BFF0B50E4628
:109C940097B017460446002800F08B8000F06AFA5B
:109CA4002146021B0EA811F0C9FD08AD0023009344
:109CB40022460EAB3146284600F0C2F8044600287E
:109CC40061D19DF82030002B5DD00B9BB3F1807FD8
:109CD40059D29DF92A30002B55DB0D9B13B97846D8
:109CE400FCF78AFE3146284600F03AFAC6B23B46F3
:109CF4002A4631460DF14100FDF73AFD04460120A4
:109D040001F07EFE002839D09DF82A30012B35D988
:109D14009DF82030012B05D103A9BDF8220006F0DF
:109D2400C3FA58BB244B9DF82A201B68FBB99DF845
:109D34002A300395013B8DF82A304FF0FF3304930A
:109D440003A8012305968DF81830FFF715FFE8B92D
:109D540032460DF14101079811F070FD03A8FFF799
:109D640072FF9DF82A3001338DF82A3006E0BDF8E1
:109D74002210BDF8280098470028D8D10B99BDF8C7
:109D84002800FCF799FE204617B0F0BD0B4B1B686A
:109D94009B07E6D50A4B1B68012BE2DD094B0A4AF7
:109DA400D3F80435094900920220912200F084FB83
:109DB400D7E70E24E7E700BF9C4E0020DC320020EA
:109DC400D832002000B000408EC6030084C60300D1
:109DD40008B510B1012801D1032008BD7846FCF76D
:109DE4000BFE0020F9E730B589B0002304938DF809
:109DF4001430036940691BBACDF815300B4614467C
:109E040053F8072FCDF819209A88ADF81D209B79B7
:109E14008DF81F300D466A46113004A9FFF728FD5E
:109E2400AB1D0DF10600E21D13F8011910F8014DE8
:109E3400AB4281EA040102F8011DF5D109B030BD3D
:109E44002DE9F04F99B004AF1D4697F878303B6088
:109E54008A469046044618B112B10DB1AA4202D105
:109E64007846FCF7C9FD98F80000C009FEF7F6FA39
:109E740000232061636198F80020C7E9033302F0EE
:109E84007F027A6007F1100207F10C01786806F08E
:109E9400EDF84FF0000907F10C0353F82920002ACC
:109EA40000F09C800023FB72A7F84030FB6308F1AC
:109EB40007037B636261EB1D2A464146204607F196
:109EC4001C0B7B64C7F830B0FFF78DFF6B78DB09A0
:109ED400E3726B7803F07F03A372EB78AA781B021A
:109EE40043EA02432A791343E3606B79A87940EA91
:109EF40003202081FEF75AFB01286AD1E27A002A66
:109F0400AAF1090314BF08220422934261D3E16831
:109F14002089FCF7B3FD00285BD107F114012089E7
:109F240006F0C2F90646002853D1E37A3868002BBC
:109F340014BF08220422AAF1070387F84C209B1AB5
:109F44007A6B9BB23B871344BB64FFF741FF5B46CC
:109F5400014632462046FFF7BCFC636907F10B015A
:109F6400013307F12C00FB62FFF7B1FCFB7A002BF5
:109F740031D0EB79287A40EA03206080FEF716FBA3
:109F8400264B20701B689B0723D5254B1B68032B8E
:109F94001FDD398FD7F844C04B000833EB46DB088C
:109FA400ABEBC3039D461F4B186804AAB1421ED8ED
:109FB400002302F811301C4B1C49D3F804350292DB
:109FC4001B4A01921B4A00920420E62200F074FA14
:109FD400DD46FB7A03BBB9F1000F1AD0FB68002BF6
:109FE4007FF450AF05205437BD46BDE8F08F1CF810
:109FF40006304FEA131E03F00F0310F80EE002F8C8
:10A0040016E010F803E002EB4603013683F801E0A2
:10A01400CCE74FF001093EE70020E4E7DC32002002
:10A02400D8320020E032002000B00040EEC6030029
:10A03400FBC6030041C50300F0B50C468FB01646BD
:10A044001F46054610B97846FCF7D6FC16B9784683
:10A05400FCF7D2FC012F02D97846FCF7CDFC384638
:10A06400FFF7B6FE01AF3B46014600222846FFF744
:10A0740030FCEB7A002B14BF082304238DF8343012
:10A084006B69A11C0133CDE9053789B2F31D0022A8
:10A09400ADF8201005A8194407930B93ADF82820B8
:10A0A40009920C91FFF711FC324631462846FFF71E
:10A0B4009AFE0FB0F0BD38B50D46044610B9784687
:10A0C400FCF79AFC15B97846FCF796FC2889FEF74C
:10A0D4006DFA012802D07846FCF78EFC95F90A3017
:10A0E400002B02DA7846FCF787FCEB68B3F1807F3B
:10A0F40002D37846FCF780FC6B6913B97846FCF709
:10A104007BFC2B6903F00102237803F07F0343EA0D
:10A11400C21323706A69127823F07F0302F07F026E
:10A12400134323706378EA7A03F07F0343EAC2138C
:10A13400DBB26370AA7A23F07F0302F07F02134339
:10A144006370EB6823711A0CA2701A0AE2702B89EF
:10A15400A3711A0A62716B8823721A0AE27138BDFC
:10A16400C37A002B14BF082004200939081A704749
:10A174000938704701307047436849B902788078DC
:10A184001A441B78C31A12F8010C1844C0B2704761
:10A194005A185B5C12F8010CC01AF7E738B50D4683
:10A1A400044610B97846FCF727FC2378AB4202D862
:10A1B4007846FCF721FC29462046FFF7DDFF40B135
:10A1C40063686278585DA378013B1840A36802FB7A
:10A1D400003038BD38B50C46054610B97846FCF752
:10A1E4000BFC2B78A34202D87846FCF705FC2146E9
:10A1F4002846FFF7C1FF18B16A68135D0133135590
:10A2040038BD10B5044610B97846FCF7F5FB0023B9
:10A21400194622789A4200D810BD6268D15401339D
:10A22400F7E710B54378044613B97846FCF7E4FB26
:10A234002378012B02D87846FCF7DEFBA36813B918
:10A244007846FCF7D9FB636813B97846FCF7D4FB6E
:10A25400A37813B15A1E1A4202D07846FCF7CCFBFD
:10A264002046BDE81040FFF7CCBF38B50D46044684
:10A2740010B97846FCF7C0FB2378AB4202D8784685
:10A28400FCF7BAFB29462046BDE83840FFF774BF07
:10A2940008B520B119B1FFF745FC002008BD0E2018
:10A2A400FCE713B50B4650B149B102A9002401F8EB
:10A2B400014D0122FFF79EFB204602B010BD0E2087
:10A2C400FBE7000030B50C468BB00546E0B1D9B1D0
:10A2D4001031FFF7F9FB0D4B03930D4B18680490F5
:10A2E4009B88ADF8143006AA042103A8FFF74DFBA0
:10A2F400062300932846019404AB06AA1021FFF715
:10A304005AFB00200BB030BD0E20FBE76E6B626B76
:10A314000EC7030030B50C4687B00546F0B1E9B16D
:10A3240004210F4B01930DEB010002AAFFF72DFB53
:10A3340002AB184610222946FFF7C5FA9DF81630DD
:10A344009DF817201B026FEA424203F47C536FEA24
:10A35400524213432380002007B030BD0E20FBE798
:10A364007674616438B50D46044600B111B9784677
:10A37400FCF742FBAC421EBF23682B60256038BD4E
:10A3840038B50C46054600B111B97846FCF734FBE4
:10A394002B68A34202D17846FCF72EFB286840B90B
:10A3A4002C60206038BDA54202D17846FCF724FB1E
:10A3B40028460568002DF6D12146BDE83840FFF750
:10A3C400D1BF38B505460C4601B110B97846FCF743
:10A3D40013FB2B6883B1A34205D123682B600020B3
:10A3E400206038BD13461A6822B1A242FAD122680D
:10A3F4001A60F4E7002CFAD00520F2E7F8B50E460F
:10A404001746044608B101B112B97846FCF7F4FACC
:10A414002368B34202D17846FCF7EEFA25685DB9A9
:10A42400266028463560F8BD2C68A64202D17846DD
:10A43400FCF7E2FA3CB1254631462846B8470028E5
:10A44400F2D00F20EFE728463146FFF78BFF204676
:10A45400E9E7000037B506AC184654F8045B0092EF
:10A464000B4602460549002007F050FD22462946C6
:10A47400002007F02DFC03B030BD00BF15C703005A
:10A48400034B1860034B1960034B1A60704700BFFD
:10A49400DC320020D8320020E432002010B4054C15
:10A4A40024681CB1A4465DF8044B60475DF8044B76
:10A4B400704700BFE432002030B585B008AC54F8D2
:10A4C400045B0394CDE90054FFF7E8FF05B030BD09
:10A4D400037942799B1A00EB03307047431E9BB209
:10A4E40047F6FE62934208D849B14B8858400B881E
:10A4F40018420CBF01200020704700207047012043
:10A5040070470000038810B5044613B97846FCF779
:10A5140073FA2088074B04EB800030EA030203D06F
:10A524006288B2F5FE4F04D11C4004F580542078B3
:10A53400204410BD00F0FFFFF8B50F46164605464F
:10A5440010B97846FCF758FA2B78022B02D0002475
:10A554002046F8BDE868047804444EB1A642F6D318
:10A56400FFF7B6FF8642F2D83046FFF7CBFF04462A
:10A57400E868FFF7ADFF0546AC42E8D2394660888B
:10A58400FFF7ACFF0028E3D12046FFF7BBFF0446EA
:10A59400F2E7000008B50748FDF7B8FC38B9FDF745
:10A5A40025FD80F00100C0B200F0010008BD0020CC
:10A5B400FAE700BFA04E002030B503B930BD013B1F
:10A5C4009BB2CC5CD55C6C40C454F6E746DF704764
:10A5D4002DE9F843858907468846012401F12009BD
:10A5E4000DB9BDE8F88363BAA8F81E304046FFF7FA
:10A5F400EDFF102D04F1FF3CB968B8692E464FEA0F
:10A604000C1C28BF102633464A4661446044AD1BE7
:10A614000134FFF7D1FFADB2A4B2E1E72DE9F04771
:10A6240007460E461446994600F1100500F120082D
:10A634000CB9BDE8F087C9F1100A544505EB0900CF
:10A6440018DA2246314611F0F9F804EB0900C0F19A
:10A6540010020021284411F01AF9002410232A467C
:10A6640041462846FFF7A8FF3846FFF7AFFF4FF0F3
:10A674000009DDE7103C3146524619FA84F411F022
:10A68400DDF8A4B25644E9E770B5838A002B90F84C
:10A6940020300D46A3F102034FF0020193FBF1F3C6
:10A6A4004FEAC30303F03803164643F0010314BF13
:10A6B4004022002213432B744368044605F111021F
:10A6C40003F10C0153F8040B42F8040B8B42F9D14B
:10A6D4001B781370A289130A43EA0223EB832846EA
:10A6E400FFF774FFA38A83B1B3F57F4F02D3784693
:10A6F400FCF782F9A28A2169130A43EA02232B8216
:10A70400A28A02232846FFF789FFA28922B10023E7
:10A71400A1682846FFF782FF94F8202005F1200164
:10A724003046BDE8704011F089B8F0B503688DB0CB
:10A734006A46044603F11007164618685968154618
:10A7440003C50833BB422A46F7D1E26931462046A5
:10A75400FFF79AFF01238DF810306368E1690DF16A
:10A76400110203F10C0053F8045B42F8045B8342CA
:10A77400F9D11B78137030460023ADF81E30FFF773
:10A7840025FF94F8203008AA0846FFF715FF314644
:10A794002046FFF71DFF0DB0F0BD2DE9F0438DB04D
:10A7A400036800AF04460D463A4603F1100E3E46D8
:10A7B400186859689446ACE8030008337345624648
:10A7C400F6D1A389A3B101233B74636807F1110295
:10A7D40003F10C0153F8040B42F8040B8B42F9D13A
:10A7E4001B781370314600232046FB83FFF7F0FEED
:10A7F400A369D4F80880A36094F82030073303F4E5
:10A80400FC73ADEB030D6A4631462046FFF73CFF6F
:10A8140001233B746368E94607F1110203F10C015B
:10A8240053F8040B42F8040B8B42F9D11B781370D4
:10A8340030460023FB83FFF7C9FE94F8203007F16C
:10A84400200249464846FFF7B7FE94F82020E16904
:10A85400C4F8088010F098FFB0FA80F0400934374B
:10A864002870BD46BDE8F08370B54FF4A076134D53
:10A874005643002406EBC4032B449B886BB928265B
:10A8840006FB024255F8324061F3170445F83240A2
:10A8940005EBC2029080002070BD834209D12823B9
:10A8A40003FB024255F8323061F3170345F83230A6
:10A8B400F1E70134282CDDD10420EDE7B04E00206F
:10A8C40070B54FF4A0740D4E5443002304EBC3053C
:10A8D4003544AD8885420BD1282000FB023256F85E
:10A8E4003200C0F31700884234BF0020012070BD3D
:10A8F4000133282BEAD10020F9E700BFB04E002035
:10A9040008B54FF420720021034810F0C0FF034B38
:10A9140000221A7008BD00BFB04E0020AC4E0020CB
:10A92400FFF7EEBF2DE9F041884616461F46044660
:10A93400B0B1C2B1013B1B2B15D8FF2913D0BD1CEC
:10A94400EDB2691C05F048FF044648B12B23457459
:10A95400837480F813803A463146143010F06EFF49
:10A964002046BDE8F0810024FAE700002DE9F0411B
:10A9740084B00E4604AF9046054610B97846FCF7FD
:10A984003BF8002E65D02C78711EC9B2002C53D030
:10A99400012C59D0304B1A6812F4807F98460ED09F
:10A9A4002E4B1B68012B0ADD2D4B2E4AD3F80435A0
:10A9B4002D49009201946D220220FFF77DFDD8F805
:10A9C4000030DB0536D5254B1B68032B32DD0FFA2F
:10A9D40086FC4FEA4C03083303F47E736C46ADEBFC
:10A9E400030D224BD3F800E004A80DF111012A460F
:10A9F40012F8013F4FEA131803F00F031EF8088002
:10AA040001F8018C1EF8033001F8023B531B9E42EF
:10AA1400EED8002300F81C30114B154AD3F8043546
:10AA24000192144A029000920F496E220420FFF70B
:10AA340043FDA5460B2004E04246681C0BF026F9B2
:10AA44000020BD46BDE8F0814246681C00F0D6FCFB
:10AA5400F6E70920F5E700BFDC320020D8320020F9
:10AA640000B0004077C703006EC70300E032002047
:10AA74009DC7030041C50300014B1860704700BF28
:10AA8400585100202DE9F0410F46054610B978468B
:10AA9400FBF7B2FF17B97846FBF7AEFF2B78012B13
:10AAA40002D97846FBF7A8FF194C236A13B17846FC
:10AAB400FBF7A2FF6B681D2B02D97846FBF79CFFBE
:10AAC4002B78012B05D1EB68013302D07846FBF7D4
:10AAD40093FF104B1E684FF001083EB9206A18B16D
:10AAE4006B6823700C4B3B60BDE8F08156F8083C62
:10AAF40029461B68A6F10800984730B916F8043CAB
:10AB0400226A08FA03F3134323623668E5E700BFB9
:10AB1400345100205C51002035510020F8B50F4D10
:10AB24002B6A13B97846FBF767FF0D4B0D4F1C6872
:10AB340001260CB92C62F8BD14F8043C2A6A06FA02
:10AB440003F31342A4F1080005D054F8083C2A7812
:10AB54005B68394698472468EBE700BF345100200E
:10AB64005C5100203551002070B50D4D2B6A13B98E
:10AB74007846FBF741FF0B4B1C6801260CB92C628D
:10AB840070BD14F8043C2A6A06FA03F31342A4F1D4
:10AB9400080003D054F8083C9B6898472468EDE704
:10ABA400345100205C5100202DE9F0410E46174637
:10ABB4009846054610B97846FBF71EFF064B1C68FD
:10ABC4003CB143463A4629793046A446BDE8F041B3
:10ABD4006047BDE8F08100BF58510020F8B50E462B
:10ABE4001746044610B97846FBF706FF16B97846AF
:10ABF400FBF702FF17B97846FBF7FEFE336813B97B
:10AC04007846FBF7F9FE736813B97846FBF7F4FE50
:10AC1400B36813B97846FBF7EFFE0A4D2B781F2B68
:10AC240002D97846FBF7E8FE2B7823715A1C26607C
:10AC34002A70677104F108010348BDE8F840FFF782
:10AC44009FBB00BF305100205C510020034B18888B
:10AC540018B15868003018BF0120704770510020A7
:10AC6400054A536833B14FF6FF718B421CBF03F1A1
:10AC7400FF335360704700BF7051002037B540F276
:10AC84000713B3EB104F01900C4602D07846FBF744
:10AC9400B3FE044DAC421FBF0FCD0FC42B6823601D
:10ACA40003B030BD7051002037B540F20713B3EB49
:10ACB400104F01900D4602D07846FBF79DFE054CDF
:10ACC400A5421FBF0FCD0FC42B682360002003B023
:10ACD40030BD00BF7051002038B50C680D4624B952
:10ACE4000348FEF739F82C6038BD013CFBE700BF90
:10ACF400B851002010B503780A2B8CB039D11E4A04
:10AD0400C4891388A34234D1418A5388994230D1EB
:10AD14008368032B2DD193685BB353684168007F2C
:10AD2400B3F5803F3CBF0133536005238DF80430F5
:10AD34000B7803F07F038DF808300B78C0F1010025
:10AD440003F07F030344DBB28DF809308978ADF852
:10AD54000C4001F00F01ADF80A1091899BB29942A1
:10AD6400D18988BF938101A8994238BFD381FCF768
:10AD740035FF0CB010BD00BF8851002030B51D4C0C
:10AD840063688BB0054623B9E38913B97846FBF7AA
:10AD940033FE0023ADF80030237B03F07F038DF8EE
:10ADA4000030154B1B788DF802306B6813B9784668
:10ADB400FBF722FE0A238DF8083000238DF81430A7
:10ADC40020882B88ADF81630ADF81A00FDF7EEFB9D
:10ADD4006B68089303238DF8180004936FF0020145
:10ADE400237BCDF80CD002A88DF82430FCF700FCAE
:10ADF4000BB030BD70510020985100200378012B16
:10AE040037B524D1134C226812B97846FBF7F4FD08
:10AE14002368114D114C6846984790B92B7843B17B
:10AE2400FFF714FF28B16846FFF7A8FF08B9FFF73A
:10AE340017FF23782BB10A4B1B8813B16846FFF721
:10AE44009DFF0848FCF704FF00232B70237003B018
:10AE540030BD00BFD05100206D5100206C51002046
:10AE6400705100206051002073B51F4C22680646C3
:10AE740012B97846FBF7C0FD236868469847002856
:10AE84002DD11A4C236813B97846FBF7B5FD184D3C
:10AE94002268AB68934228BF1346B3F5E16F94BFB1
:10AEA400D31AA2F5E163236053B9FFF7CFFE38B19B
:10AEB4006846FFF763FF08B9FFF7D2FEAB6823606B
:10AEC4006B6863B123680B48B3F5E16F36BF0A4979
:10AED4000A4959433144FDF756FF02B070BD054895
:10AEE400FDF73AFFF9E700BFD05100209C51002044
:10AEF40070510020A051002040420F0000D2496B45
:10AF040013B5C1F30744012C019115D1A0B90B4924
:10AF140010780B7803F0010290420DD083F0010306
:10AF24000B70074BDA89D20706D51B8823B1054875
:10AF3400FCF77EFE044B1C7002B010BD985100203B
:10AF440070510020605100206C51002010B5124C4B
:10AF5400227812B17846FBF74FFD01210F48FCF728
:10AF64000FFE10B17846FBF747FD0D4B0D4A00214B
:10AF740019700D4BDA600D4B1822184610F087FC3F
:10AF84000B4A82600B4A0C4B02610C4AC2600C4AA9
:10AF94001A600123237010BD6E510020B8C703004E
:10AFA4006D5100206DAE02009C510020B85100206C
:10AFB400DDAC0200905100206051002040420F009F
:10AFC40001AE020073B5044610B97846FBF714FDD0
:10AFD4000DF1060101A805F02DFAA368B3F5803F31
:10AFE40002D9072002B070BD2088FDF7DFFA0128DE
:10AFF40018D16088FDF7DAFA48B16088FDF7D6FA0F
:10B00400032804D06288BDF804309A42E9D1A368C9
:10B01400124D6BB9002412482C60AC60FDF79CFE05
:10B024002046DFE72088FDF7C1FA0028E1D0D8E701
:10B0340021880029EED06288002AEBD0084CAB604E
:10B0440029806A80E668FDF709FF31182046FDF77C
:10B054009AFE7F230020EB606860C3E788510020DC
:10B06400B8510020004870478851002000487047BC
:10B0740070510020184B37B51A881AB15A680AB1B2
:10B084009C686CB91548FDF767FE1349144800F035
:10B09400A1FAF8B1784603B0BDE83040FBF7ACBC88
:10B0A400FFF7D4FD0028F0D00E4D2C60FDF7D6FE3E
:10B0B400B4F5E16F0C4928BF4FF4E16401FB0401CE
:10B0C400281DFDF760FE0948FCF7B2FD084B01227C
:10B0D4001A70DAE703B030BD70510020A05100208F
:10B0E400030007019C51002040420F0060510020E2
:10B0F4006D510020034B186010B97846FBF77CBCF7
:10B10400704700BFD051002013B50190000CB0F57A
:10B11400837F0C4602D07846FBF76EFC024B1B780B
:10B12400237002B010BD00BFB452002037B50190A7
:10B13400000CB0F5837F0C4602D07846FBF75CFC2C
:10B1440025780B4C227862B93DB1FDF787FE094B97
:10B15400D96801441846FDF716FE0020257003B097
:10B1640030BD002DF9D10348FDF7F6FDF5E700BF2A
:10B17400B4520020B852002030B585B01BBA089DE7
:10B184002C7861F30004511E4A424A4162F341049F
:10B194002A466FF3870402F8014B044654F8101F43
:10B1A400C5F8011061685160C5F8093029466B463D
:10B1B4000D22FEF788FB6B4603CBC5F80D00C5F8DE
:10B1C400111005B030BD0000F0B58FB005460DF18B
:10B1D4001F023749364C374F002004F0F9FF26464A
:10B1E4002368002B5CD05A685168B2F800C06B1A0F
:10B1F40048BF4B1B5188A2F802C001EB0C000A2186
:10B2040000FB011103F5F423002003F59073B3FB55
:10B21400F7F38B42108045D3FDF710F90746FDF78D
:10B2240029F99DF81F10346802293B46A1F1020751
:10B2340002460CBF04F1200004F10800794208AC76
:10B2440079410094FFF798FF0121152322461A48FB
:10B25400FFF768FB014618B301230371164805F094
:10B26400F0FA164B1B689B0717D5154B1B68042B6C
:10B2740013DD3268134BD17ED3F804350491917EEB
:10B284000391517E0291127E01920F4A00920F495E
:10B2940040F201120520FFF70FF933685B685D6027
:10B2A4000FB0F0BD0DF11F02214604F091FF97E7A6
:10B2B400D052002040420F00D4510020DC32002044
:10B2C400D832002000B0004004C80300F7C70300D0
:10B2D40008B5FDF7C3FDBDE80840FFF775BFFFF7EC
:10B2E40073BF30B587B002AC23460D220D46FEF77E
:10B2F400EAFA94E803006B4683E80300082205F1A8
:10B304000D01184610F040FAB0FA80F0400907B079
:10B3140030BD000013B5154A154C002313600421F9
:10B32400144AE2600DEB0100134AA2602361FDF7A9
:10B33400BBFEFDF793FD0199E268B1FBF2F302FB5A
:10B344001313184460600D4C0D4A0E4934232046F3
:10B3540005F050FB20464FF47A7105F0F8FA0A4ADA
:10B364000A480421FEF711FB02B010BDD0520020A0
:10B37400B852002080969800E3B20200D451002015
:10B3840070520020D5B20200A45200201BC8030052
:10B3940010B5064C23783BB9054805F003FA054877
:10B3A400FDF7B8FC0123237010BD00BFB452002088
:10B3B400D4510020B85200201FB504A901F8090D8A
:10B3C400044800F007F910B17846FBF715FB05B007
:10B3D4005DF804FB0300060107B507480DF10301FE
:10B3E40000F01FF910B17846FBF706FB9DF8030047
:10B3F40003B05DF804FB00BF030006012DE9F0472C
:10B4040017468EB0044610B97846FBF7F5FA651C6A
:10B4140000230DF1070202A92846029304F0D8FE86
:10B424004FF6FF784FF00409029B13B90EB0BDE844
:10B43400F0875B6813B97846FBF7DEFA0298D4F814
:10B44400096000F1080A08222946183036BA10F0BB
:10B454009BF948BB21465046FFF743FF20B3029BAC
:10B464000833029841680A8842451CBF01320A80A9
:10B474002146CDE9040311F80D2B8DF80C90C2F38D
:10B48400400C03A8C2F300028DF824C08DF82520D7
:10B494000896CDE90671FCF7A1FB0DF1070202A99C
:10B4A400284604F095FEBFE79DF80730002BF4D042
:10B4B4000298082200F1200A2946303010F064F97D
:10B4C4000028EAD121465046FFF70BFF0028E4D0BC
:10B4D400029B2033C5E7000013B5020C019084B22F
:10B4E400074803681988A14206D15988914203D8B4
:10B4F400C3880B44934201DC1C30F2E702B010BD58
:10B50400C4C0030038B503685C88C3880C1B9C4224
:10B51400054602D37846FBF76FFAA869204438BD84
:10B5240070B58EB00E4601901546FFF7D5FF044660
:10B5340088B18388AB4222D8C368019831469847C2
:10B54400F8B9BDF806102046FFF7DCFF02230370AC
:10B5540001200EB070BD02242C22002103A810F09B
:10B5640096F90198CDF81200132303A88DF80C3036
:10B574008DF81040CDE90665FCF730FBE8E70024C0
:10B58400EAE70124E8E70000F7B50E4C019205460E
:10B594000E461F4654F8083C2A68198810888842C9
:10B5A4000DD159885088814209D3EA8802449142D6
:10B5B40005DA54F8043C01993A4630469847083471
:10B5C400E8E700BF74C10300014800F04FB800BFB2
:10B5D40025B50200F0B585B00D460190D1B1FFF755
:10B5E4007BFF0446C8B10198E36803902946BDF87F
:10B5F40006709847064690B939462046FFF782FF01
:10B604000378039A43F00303037031462B46204624
:10B61400FFF7BAFF0E2005B0F0BD0520FBE70B20B5
:10B62400F9E773B50D460190C9B1FFF755FF06461A
:10B63400B8B1BDF80610FFF765FF007810F00204FA
:10B6440006D03369019829469847002002B070BD9E
:10B65400B16841B1B288284610F0F0F8F5E70E2041
:10B66400F4E70520F2E70820F0E700002DE9FF41A8
:10B67400074610B97846FBF7BFF90024DFF8548079
:10B68400134E0394D8F80030A3421CD93368E50064
:10B694002B449B78D3B133685819694603AB01AA8C
:10B6A400406800F019F8009981B133685A195B5B5E
:10B6B400ADF808305368DB88ADF80A30DDE90120C5
:10B6C400B8470028E7D104B0BDE8F0810134D9E7D8
:10B6D400D8520020D4520020F8B506460D46144630
:10B6E40000211A6808301F46FEF726FF386010B99B
:10B6F40028602060F8BD4388F380031D2B60038815
:10B7040003F18043013B9B002360F3E7F7B501900D
:10B71400000CA0F58073012B0E4627D84B78013B13
:10B72400072B44D84B88143BB3F5917F3FD8214F66
:10B734000978C4B2A02565437A19043512793D44C9
:10B7440071B112B9284605F02DF8A0206043737832
:10B754003B507188284605F0FAF8002003B0F0BD8C
:10B76400002AF2D0284605F032F8EEE7A0F58173FE
:10B77400012B0AD80F4B09780238A022C0B202FB71
:10B784000030043005F003F9E7E7A0F58273012BDC
:10B794000DD80B7813F0FC0409D1064B0438A02211
:10B7A400C0B202FB0030043005F0B2F8D5E7072040
:10B7B400D4E700BFE85200200C4B834210B502D0FE
:10B7C4007846FBF719F90A4C636813B97846FBF716
:10B7D40013F9084B20786168A02202FB0030043082
:10B7E40005F058F80023636010BD00BFDC52002050
:10B7F40028540020E8520020F8B5124B83420F462B
:10B80400164602D07846FBF7F7F80F4C636813B975
:10B814007846FBF7F1F865682A23AB74731C6B74E4
:10B824003246394605F1130010F008F8074B20782A
:10B83400A02202FB00302946043005F002F8002360
:10B844006360F8BDDC52002028540020E852002038
:10B85400F8B5124B83420E4602D07846FBF7CCF87B
:10B864000F4C636813B17846FBF7C6F830780D4F78
:10B874007168A02505FB00700231043004F0ACFFB0
:10B88400606040B1F3680360337823705D437A5994
:10B8940002710020F8BD0220FCE700BFDC5200204A
:10B8A40028540020E8520020044BC01A044B801096
:10B8B40058430B46C1B20348FFF776B9EC52002057
:10B8C400976FF996DC52002017B40190000CA0F594
:10B8D4008073012B14D81E4AA023C0B258431318F6
:10B8E40012581C794A705B6F0C7003F5FA734FF4AD
:10B8F4007A72B3FBF2F34B8003B05DF8044B7047EC
:10B90400A0F58173012B09D8114B0238C0B2A022D3
:10B9140002FB003090F82C300B70EDE7A0F5827339
:10B92400012B0ED80438A023C0B26C24084A13FBA0
:10B9340000401318105808609A889B798B718A808C
:10B94400DAE7784603B05DF8044BFBF755B800BF5F
:10B95400E8520020012882B00AD8032300F5807041
:10B96400ADF80430ADF80600019802B0FFF732BE1E
:10B97400072002B07047012882B00AD8032300F5DB
:10B984008070ADF80430ADF80600019802B0FFF7FE
:10B9940048BE072002B0704770B5124C124A1349D2
:10B9A4002546012645F8046B4FF48073284605F0BC
:10B9B40021F8284604F0F6FEA43444F8046C8023ED
:10B9C4000B4A0021204605F015F8204604F0EAFE53
:10B9D400324608480849FFF701F90848BDE87040B5
:10B9E40004F0EEBFE85200203D540020ADB8020040
:10B9F4003D550020DC52002030C8030030540020A4
:10BA0400012810B5044602D97846FAF7F5FF034B2E
:10BA1400A02202FB0434207910BD00BFE8520020AC
:10BA240038B50B4D2B788BB90A4C0B482146FCF7E3
:10BA340045FA58B923681979084B01222A70C3F8CA
:10BA44001C1507490A80C3F81C019A60012038BDFF
:10BA5400DC570020F8590020E8590020002000405D
:10BA6400BE55002070B5174C237813B97846FAF701
:10BA7400C3FF154D296849B9144B0122DA602170BE
:10BA8400134BBDE870401868FDF7DABD114A087918
:10BA94001388461CB3420BD101330F481380FCF7C3
:10BAA4006FFA0A4A002301212B60D1602370E7E773
:10BAB400834206DC194401331380044B0979C3F82B
:10BAC4001C1570BDDC570020F859002000200040F0
