:020000022000DC
:1060000000F0032059620200896202008B620200E4
:106010008D6202008F6202009162020000000000A7
:106020000000000000000000000000009362020079
:10603000956202000000000097620200996202006F
:106040009D6202009F62020021D80300A362020049
:10605000A5620200A76202003D690200AB62020075
:10606000AD620200AF62020049300300B362020079
:10607000B5620200B7620200B9620200BB620200B0
:10608000BD620200995D030001A10200C36202002B
:10609000C15D0300C762020079660200CB620200A4
:1060A000CD620200CF620200D1620200D362020020
:1060B000D5620200D76202009B6202009B6202006E
:1060C000D9620200DB620200DD620200DF620200D0
:1060D000E1620200E3620200E5620200DD75030096
:1060E000E9620200EB620200ED6202009B620200C4
:1060F0009B620200F16202009B620200EF620200FA
:10610000354936480A1A02D0072291438D46344950
:1061100034480A1A06D00722914381F309880222E3
:1061200082F3148830483149314A00F043F831484D
:106130003149324A00F03EF831483249324A00F0E3
:1061400039F832483249334A00F034F8324833499A
:10615000334A00F02FF833483349344A00F02AF824
:1061600033483449344A00F025F834483449002291
:1061700000F02BF833483449002200F026F8334869
:106180003349091A082903DB002202600430016048
:106190001F482049884205D00268043003B4904764
:1061A00003BCF7E700208646EC4600200021294A80
:1061B0009047FEE7884207D0521A05D00378013095
:1061C0000B700131013AF9D17047884202D0027058
:1061D0000130FAE77047000000F0032000E80320D8
:1061E00000F0032000F00320EC220400C83200205D
:1061F00018330020F4620200F4620200B40B0400C1
:10620000EC220400C8320020C8320020840C0400B4
:10621000840C0400840C0400840C0400840C04002E
:10622000840C0400840C0400840C0400EC220400A0
:106230003C230400183300201833002018330020BA
:10624000247B0020247B0020247B0020247B002052
:10625000247F00201565020008484FF0070188439D
:106260008546074880470748016841F4700101608E
:10627000BFF34F8FBFF36F8FFFF742BF00F00320D4
:106280009155030088ED00E0FEE7FEE7FEE7FEE73C
:10629000FEE7FEE7FEE7FEE7FEE7FEE7FEE7FEE7D6
:1062A000FEE7FEE7FEE7FEE7FEE7FEE7FEE7FEE7C6
:1062B000FEE7FEE7FEE7FEE7FEE7FEE7FEE7FEE7B6
:1062C000FEE7FEE7FEE7FEE7FEE7FEE7FEE7FEE7A6
:1062D000FEE7FEE7FEE7FEE7FEE7FEE7FEE7FEE796
:1062E000FEE7FEE7FEE7FEE7FEE7FEE7FEE7FEE786
:0462F000FEE700BF06
:1062F40041DF704700B587B008F0AAFB88B91A4B94
:106304001B789BB108F07FFBF0B9184B1B6813F4A2
:10631400804F03D0164B1B68032B1ADC07B05DF8C3
:1063240004FB144A60210FF0C7FDE8E703930493CC
:10633400114B059303A800F03DFA0028E2D00D4A62
:106344006B210FF0B9FDDDE70A4A6D210FF0B4FDB2
:10635400DBE70A4BD3F80435094A00926F22094956
:10636400042004F037FED9E718330020DC32002083
:10637400D8320020240D0400A40D040000B0004015
:106384006C0D0400630D040000B58DB024220021BF
:1063940003A81AF022F801238DF80C3007238DF896
:1063A4000F308DF81430234903A808F0A5FBE0B999
:1063B400214B1B6813F4804F03D0204B1B68032B25
:1063C40018DC012013F0A2F9F8B91B4B1B6813F475
:1063D400804F03D0194B1B68032B1BDC002008F0F3
:1063E400F7FA10BB0DB05DF804FB154A43210FF01A
:1063F40063FDDDE7134BD3F80435134A00924522BD
:106404001249042004F0E6FDDBE70D4A46210FF0B3
:1064140053FDDAE70B4BD3F804350D4A00924722BB
:106424000A49042004F0D6FDD8E7054A48210FF0B4
:1064340043FDD7E718330020DC320020D832002097
:10644400240D040000B00040E00C0400630D0400BF
:10645400000D040000B585B0234A0621234804F04A
:106464009DFD234B1B6813F4804F03D0214B1B6805
:10647400032B18DC0FF0A6FC00BB00F03DFA1E4B0A
:106484001868039000F004F9E8B9FFF77DFF184B92
:106494001B6813F4804F03D0164B1B68032B17DCC7
:1064A40005B05DF804FB154BD3F80435144A00928B
:1064B40052221449042004F08DFDDBE7124A5421D2
:1064C4000FF0FAFCD9E7104A58210FF0F5FCDCE78D
:1064D4000A4BD3F804350D4A00925B220949042083
:1064E40004F078FDDCE700BF75AF0200FFFF010098
:1064F400DC320020D8320020840C040000B00040BC
:10650400880C0400630D0400240D0400C40C040072
:1065140008B5FFF79FFFEFF3108572B61E4B9B681B
:106524009BB91D4A012393601C4BD3F880101C486F
:1065340001401160C3F88000D3F8841051604FF01B
:10654400FF32C3F88420002400E0012405B962B6B8
:10655400FFF7D0FE104B9B686BB164B9EFF3108367
:1065640072B60D4A10680D490860506848600021F1
:10657400916003B962B600214FF4F03000F080F965
:106584000222C8214FF4F03000F086F9FFF7B0FE84
:1065940017F03EF9FAE700BF5874002000E100E06C
:1065A400FC06FFBD4BDF704710DF704760DF7047AC
:1065B40069DF704710B588B0274B1B6813F4804F10
:1065C40003D0264B1B68032B10DC254B0793079A3B
:1065D4000692002303930493059303A90120FFF774
:1065E400E7FF044668B1204608B010BD1D4BD3F840
:1065F40004351D4A00924B221C49042004F0EAFC95
:10660400E3E7002304930593F8230393069A03A96D
:10661400A120FFF7CDFF04460028E4D106A8FFF728
:10662400C5FF0446069A079B9A42DCD00A4B1B68B6
:1066340013F4804FD7D0094B1B68012BD3DD094BD2
:10664400D3F8043501920A4A00926D2207490220C8
:1066540004F0C0FCC7E700BFDC320020D8320020C1
:10666400C832002000B00040040E0400ED0D040008
:10667400180E040000B583B002E0019802F0A6FCF5
:1066840001A8FFF78FFF0028F7D003B05DF804FBE3
:1066940000B585B003901F4B1B6813F4804F03D0E3
:1066A4001D4B1B68032B1FDC1C4903A8FFF77CFF51
:1066B4000346A8B91A4BE02283F8162393F816333D
:1066C4005B09012B20D9042B21D0164B9B68B3B155
:1066D400144A136843F480031360FFF76BFF034607
:1066E400184605B05DF804FB0F4BD3F804350F4A88
:1066F400009275220E49042004F06CFCD4E7084B88
:106704004FF480021A60E8E742F20203E8E742F23B
:106714000203E5E7DC320020D8320020AD69020034
:1067240000E100E05874002000B00040540E040062
:10673400ED0D040008B5012300220349496803480C
:1067440012F0A8FB08BD00BF1C3300201035002048
:1067540008B50378072B10D00A2B19D0022B00D0D0
:1067640008BD114B1B782BB1104B1B68002BF7D0C5
:106774009847F5E7FFF7DEFFF2E710220B4B996825
:106784000B4812F047FC0028EAD00EF0E9FFE7E7D7
:106794008168C06808F060F918B9034B01221A70C7
:1067A400DEE70EF0DDFFF8E7193300201C3300208C
:1067B4001035002010B586B00446194A03AB07CA49
:1067C40003C323F8022B120C1A70164B94E807002B
:1067D40083E807000AB31449144812F03FFB034648
:1067E40010B1184606B010BD114B009303AB0E4A0E
:1067F4000E49104812F0EFFA03460028F1D10E4872
:1068040013F03EFF01460B4812F010FB034600282C
:10681400E7D1FFF78FFF0346E3E70723E1E700BF74
:10682400700E04001C33002028330020443600205E
:1068340055670200103500204833002008B50D4B81
:106844001B6873B14FF0A042D2F804350A490968B5
:106854004B40C2F80435074A1368013B136023B167
:1068640008BD00200EF07CFFECE704480FF00EFB9F
:10687400F6E700BF84360020883600208C360020DE
:1068840021B94FF0A043C3F8080570474FF0A04367
:10689400C3F80C057047000012B11346132900D841
:1068A400704770B5114A10605B00013B104A1360D9
:1068B40000264D0CCC034FF47A72002314F5FA70C1
:1068C40045F1000119F0BAFB3246014609480FF0C0
:1068D400BFFA48B94FF0A042D2F804350349096819
:1068E40023EA0103C2F8043570BD00BF88360020D6
:1068F400843600208C36002008B50D230BE04FF0C1
:10690400A04103F5E072032041F8220001229A40DD
:10691400C1F808250133102BF1D9054A0121054896
:106924000FF080FA00B908BD0EF01AFFFBE700BFB4
:10693400416802007C0E040010B50024144BC3F817
:106944007C410EE043F23333994208D9114BD3F81A
:106954000425114B1A60114B1B68204698470134DB
:10696400E4B2032C12D84FF0A043D3F810250C4BFB
:10697400195D01238B409343F1D0074B1B68054AF3
:10698400D2F80425991ADDD5D11ADBE710BD00BF72
:106994000060004000B00040B0360020AC3600205B
:1069A400800E04000620704700B587B041F2010351
:1069B400984245D020D944F20103984256D044F27B
:1069C400020398426DD1454B1B6813F4804F1ED0CF
:1069D400434B1B68002B1ADD424BD3F80435108857
:1069E40003905268029201913F4A00925F223F490C
:1069F400012004F0EFFA0AE0012852D1374B1B685A
:106A040013F4804F03D0364B1B68002B0BDC4FF084
:106A1400A0434FF4F032C3F81825C3F80C25EFF364
:106A2400108372B653E02F4BD3F8043502920191D0
:106A34002F4A009254222D49012004F0CBFAE6E7B4
:106A4400264B1B6813F4804FE1D0254B1B68002BA9
:106A5400DDDD244BD3F8043502920191254A0092DE
:106A640057222249012004F0B5FAD0E71B4B1B68DA
:106A740013F4804FCBD01A4B1B68002BC7DD194B86
:106A8400D3F804351068049050680390029192681A
:106A94000192194A009269221449012004F09AFAD9
:106AA400B5E70E4B1B6813F4804FB0D00C4B1B683A
:106AB400002BACDD0B4BD3F8043501910F4A009247
:106AC4006D220A49012004F085FAA0E730BF0C4B7F
:106AD4001B78002BFAD107B05DF804FBDC320020F0
:106AE400D832002000B00040100F0400BD0E040096
:106AF400D00E0400EC0E0400300F0400540F040008
:106B0400C832002000B583B00023ADF80030054B37
:106B140001936A46014644F20200FFF745FF03B0C1
:106B24005DF804FB1421040010B40346044C00680F
:106B340059689A68DB680FC45DF8044B704700BF5E
:106B4400B4360020064B074A92E8030083E80300AA
:106B54000833443292E8030083E80300704700BF1F
:106B6400B43600206000001000487047B43600209E
:106B7400002308E0074901EBC30000224280426081
:106B840001F8332001331F2BF4D9034B00221A6080
:106B9400704700BFC4360020C437002030B4054617
:106BA4000F4B1B6800240AE01F230E4A12F833001F
:106BB400A0B102EBC3025288AA4207D001341F2CB1
:106BC4000BD85A1E002BEFD01346EEE7054A02EB12
:106BD400C30252688A42F1D100E0002030BC704701
:106BE400C4370020C436002030B40A4A13680A4C63
:106BF40004EBC30568806960012104F833100B4479
:106C04001360202B01D030BC7047134600221A6059
:106C1400F9E700BFC4370020C4360020C0F30C03DA
:106C24008B4202D3C91A08447047C91A0844A0F514
:106C340000507047C37D002B42D083780A7802F05D
:106C4400800203F07F0313430B7002780B7803F088
:106C54007F0343EAC2130B700378002B41D030B496
:106C64004378082B14BF002201224B7803F07F03E2
:106C740043EAC2134B70858803F08003C5F386147E
:106C840023434B708A7802F0030242EA8502D2B2AF
:106C94008A70857902F0FC02C5F3C10422438A702C
:106CA400CB7803F01F0343EA4513DBB2CB70C27900
:106CB40003F0E00302F01F021343CB7030BC7047B3
:106CC40083780A7802F0BF029B0103F04003134368
:106CD4000B70C27803F0C00302F03F0213430B7041
:106CE400B3E770470023032B22DC10B402E0013326
:106CF400032B19DC0F4C6C2202FB034292F8442054
:106D0400012AF4D16C2202FB0342948AC289944280
:106D1400EDD1084C6C2202FB034292888A42E6D1F0
:106D24006C2202FB034000E000205DF8044B704736
:106D3400002070473C380020002300E00133032B7F
:106D440013DC0B496C2202FB031292F84420022A42
:106D5400F4D16C2202FB0312918A828A9142EDD112
:106D640003486C2202FB030070470020704700BFF9
:106D74003C38002008B10820704704207047000008
:106D840038B505460C46CB695B78C370CB691B7874
:106D940083F001038370CB694362087B022814D01B
:106DA400FFF7E8FF6870E27A32B9A18AC0F10F03F5
:106DB400994201DC082831D0A18A0346C0F10F00B2
:106DC400814207DC42B3012205E0154B987DFFF7B1
:106DD400D1FFE7E701222A7062B1A28A13440B3380
:106DE400104A82FB0312DB17C3EB6203013BEB7116
:106DF4000023AB710023EB7505F10C0294E803004A
:106E040082E80300A2692A622289AA82A27AAA7568
:106E1400226AAA62184638BD0022DCE70720FAE796
:106E240024380020ABAAAA2A30B403460C460978B9
:106E3400817000214162A1680B2903D8217BF1B143
:106E4400012100E0012119700020587029B1A168C6
:106E54000731C9080139D97198710121D97503F134
:106E64000C0504F1100103C985E80300E189998246
:106E7400A1691962217F99759A6230BC704700211B
:106E8400E1E700000021164B1B688B4226D9002342
:106E9400144A02EBC10252689A421DD910B4114A35
:106EA40052F8312002EBC30412F8332082420DD091
:106EB40001330C4A02EBC10252689A42EFD8013105
:106EC400074B1B688B4205D90023F2E760685DF825
:106ED400044B70470020FAE70131D4E700207047E3
:106EE400C8370020CC37002070B58CB006460D465C
:106EF40014462C22002101A819F06FFA0E238DF8F4
:106F04000430ADF808604FF0000365F300038DF81A
:106F14000A308DF80B4001A801F0F8F80CB070BDF0
:106F240030B58DB005460C462C22002101A819F07D
:106F340054FA0F238DF8043002958DF80C4001A803
:106F440001F0E4F80DB030BD00B58DB048B913F1CF
:106F5400020F06D001228DF80420029301A801F04B
:106F6400D5F8034B186802F0F9FF0DB05DF804FB87
:106F7400D83700202DE9F041054688460378BBB197
:106F84000D4B1C68621C1A6004F00704AB8A0B4F9B
:106F940007EBC4067380A988A869FFF73FFE7060F9
:106FA400EB6903F00103737007F83480BDE8F081E6
:106FB4007846FFF7A7FDE3E720380020E0370020FC
:106FC40070B5064603784BB1B58A347F04F00104EA
:106FD400B188B069FFF722FE002304E07846FFF78A
:106FE40091FDF1E70133072B15D80C4A02EBC302DC
:106FF40052688242F6D1094A02EBC3025288AA427D
:10700400F0D1064A02EBC3025278A242EAD1034805
:1070140000EBC30000E0002070BD00BFE03700209B
:10702400F0B40D684C688F68CE68D5601461576100
:1070340096610D694C69D56114620378DB0913709C
:10704400D17DF9B1037803F07F039370002353706B
:1070540013789BB143789B0103F4FE53817843EA90
:10706400910393808378DB0003F01803C17843EA2B
:1070740051139371C37803F01F03D3710023536238
:10708400F0BC70470178C1F380119170017801F070
:107094003F01D17043B190F90130002B02DB04238E
:1070A4005370D5E70823FBE704235370D0E770B58A
:1070B4000C461E4603788BB104252A44A26000F1D5
:1070C4000C032360836A6360204603F0A9FA024636
:1070D40010B923691D443560104670BD0125ECE7E5
:1070E4002DE9F0418EB00D4616461C468046002818
:1070F4002DD0002D2FD0002C31D0636A023305939C
:1071040004F10C00A378002B2DD00121627801AF8B
:107114003B46082A14BF0022012203F064F80697B4
:10712400CDF81C80B2B2ADF820200B9515440C9517
:1071340063788DF83430237B022B16D00023ADF80E
:10714400283005A803F047F80EB0BDE8F081784672
:10715400FFF7D8FCCDE77846FFF7D4FCCBE77846B9
:10716400FFF7D0FCC9E70221D0E723692BB12369DB
:1071740009931023ADF82830E3E77846FFF7C2FC03
:10718400F5E72DE9F04186B004460D46C37D002B9A
:107194003ED0082605FB06F8E379AB423AD0A57148
:1071A4006B46324601A92046FFF781FF074648BBDC
:1071B4004DB994F84F3033B9A369C3F30C03A380DA
:1071C400012384F84F30E37D7BB994F84E3063B9E2
:1071D4002DBBB4F84610627823468A1AA16E08467D
:1071E400FFF77EFF012384F84E3005992046FFF710
:1071F40021FDA16E32464144009819F0C5F801A85A
:1072040003F028FAB7FA87F0400906B0BDE8F08128
:107214000C26BFE7B4F84660A6EB0806BFE778463D
:10722400FFF770FCD5E770B5054690F84C40002692
:1072340005E00136631C85F84C300134E4B2EB7987
:10724400A3420AD3AA6C0123A3401A42F5D12146D2
:107254002846FFF796FF0028EBD1304670BDF0B505
:1072640087B045781544C37DDBB10B239D4221D8FB
:1072740016460F4604466B462A4601A9FFF717FF38
:107284000546C0B905992046FFF7D4FCE37D53B108
:1072940032463946009819F077F801A803F0DAF974
:1072A40009E00F23E2E72346324600993846FFF708
:1072B40017FFF2E70925284607B0F0BD10B50446CC
:1072C40090F84430012B0ED1237B012B0FD00C4BB3
:1072D400DB68A36302F08AF9A16B014404F12C007A
:1072E40002F014F910BD7846FFF70CFCECE7A37D1F
:1072F400034AD168126902FB0313A363EAE700BFE0
:107304002438002038B5002400E00134032C13D8BD
:107314000A4A6C2303FB042393F84430012BF4D171
:107324006C2505FB04252846FFF77DFF0028ECD0DB
:107334002846FFF7C3FFE8E738BD00BF3C3800200C
:1073440038B5044690F84430022B02D07846FFF753
:10735400D9FB054B1D6802F049F9411904F12C00D1
:1073640002F0D4F838BD00BF2438002038B50446F4
:1073740090F84430022B02D07846FFF7C3FB084B49
:107384005D7D5A689B6803FB052502F02FF94119BE
:1073940004F14C0002F0BAF8012384F8643038BDDB
:1073A4002438002010B504460D4B1B68806E9847A6
:1073B40004F12C0002F092F894F84430022B0AD025
:1073C4006C220021204619F008F8002084F84400BB
:1073D40001F03CFB10BD04F14C0002F07FF8EFE734
:1073E400DC37002010B504460121FFF7C3FD204619
:1073F400FFF7D8FF10BD10B58CB0044690F84430A8
:10740400012B02D07846FFF77DFB01238DF8043071
:10741400236D029301A800F079FE2046FFF7C2FF16
:107424000CB010BD2DE9F04104460E4615461F462A
:10743400531EDBB2012B46D8A36E13B17846FFF777
:1074440061FB2E4B1B6838469847A066002852D033
:107454003346224606F12001D3F80080D3F804E035
:10746400D3F808C0D868C2F80080C2F804E0C2F8B3
:1074740008C0D060103310328B42EDD118685968BF
:107484009B681060516093600023A364A4F8467065
:10749400B188B069FFF7C2FBA061012D17D06FF06E
:1074A4000103A362002384F86430154B6365E4652B
:1074B400144B6363E463012001F0C8FA84F8445078
:1074C4000120BDE8F0817846FFF71CFBB4E70E4BC2
:1074D4001B7D84F84D30002384F84E3084F84F30FF
:1074E40084F84C30B36A23656FF00103A362074B41
:1074F4006363E463DFE70020E3E700BFD4370020E1
:1075040053800200397602002438002045760200B8
:1075140030B583B0C3790133C27D92B1082505FB30
:1075240003F582B14FF48073AB422AD21E4B1B6821
:1075340013F0040F36D01D4B1B68002B06DC00240F
:107544002DE00C25EBE74FF4C073EDE7184BD3F8AF
:1075540004350195174A009240F26322164901202E
:1075640003F038FD00241AE0144C6C2303FB02449E
:107574002B46022201462046FFF754FF78B9002427
:107584000DE00022032A09DC0C4B6C2404FB0234BA
:1075940094F84430002BE7D00132F3E7002420466E
:1075A40003B030BD0024FAE7DC320020D8320020DA
:1075B40000B00040D40F0400C70F04003C38002082
:1075C40030B585B00D460446A8B100212046FFF72A
:1075D400D1FC2946206DFFF7A3FC2046FFF7E2FE0D
:1075E4000F4B1B6813F0040F03D00E4B1B68032BC7
:1075F40005DC05B030BD7846FFF784FAE5E70A4BB1
:10760400D3F8043594F8442002950192074A009275
:107614004FF4D6720649042003F0DCFCE9E700BF0E
:10762400DC320020D832002000B00040700F04008B
:10763400C70F040008B508460021FFF7C1FF08BDC5
:1076440010B50C4691F84430012B09D194F84D3013
:107654007BB9237B012B07D02046FFF7CCFE10BD5E
:107664007846FFF74FFAF1E701212046FFF7A8FF1C
:10767400F5E7013B84F84D30002384F84C30204674
:10768400FFF7D1FDEBE70000062900D0704770B585
:1076940082B003460178890101F4FE5140789D7857
:1076A400DC78240444EA05641D7944EA05245B7902
:1076B4001C4341EA90011046FFF714FB0546B8B19C
:1076C400866C2643866444B3037853B3EB795A1C1F
:1076D40001239340013B9E4227D0002385F84C3080
:1076E4002846FFF7A0FD2846FFF7E8FD02B070BD6D
:1076F400104B1B6813F0040FF8D00F4B1B68012BC1
:10770400F4DD0E4BD3F804350D4A009240F2B94231
:107714000C49022003F05EFCE8E70321FFF750FF69
:10772400E4E77846FFF7EEF9D0E72846FFF763FE73
:10773400DCE700BFDC320020D832002000B000407B
:10774400E80F0400C70F04002DE9F04389B0804618
:107754000F4614461E4695780DB32846FFF792FB54
:107764008146C8B18DF80050236A0693A38AADF808
:107774000E3004AB04F10C0292E8030083E803002A
:10778400A37D8DF81C30CDF80480029723788DF802
:107794000C3031466846C84709B0BDE8F083FFF7AE
:1077A40073FFF9E700B585B000238DF80F3098B169
:1077B4000346084602330B600DF10F0102F00FFD82
:1077C4009DF80F3043B10D4B1B6813F0040F03D029
:1077D4000B4B1B68032B04DC9DF80F0005B05DF810
:1077E40004FB084BD3F80435074A009240F2EB221D
:1077F4000649042003F0EEFBEEE700BFDC32002074
:10780400D832002000B0004030100400C70F04003C
:107814002DE9F0438FB004460E4615461F46D0F8B6
:107824001890037823B181884846FFF7F7F9A061DF
:1078340004F10C00A378002B3AD0012162780DF1F9
:1078440028084346082A14BF0022012202F0CBFC78
:10785400C4F81890CDF8088003966378EA1A92B2B7
:10786400ADF810203244089207978DF82430002395
:10787400ADF81830237B022B1CD0A3786BB3237B89
:10788400022B1BD02546002345F8243F2A46E178E5
:10789400206A0AF019FE606A98B101A9FFF782FF15
:1078A40000283AD12A46E178206A0AF00DFEF2E770
:1078B4000221C3E71023ADF81830DEE723690593EE
:1078C400E0E7237B022B2CD104F10C01E0890AF0C0
:1078D400A9FE0028D3D1052020E000236362237B86
:1078E400012B0DD02146002341F8243FA08A0AF041
:1078F40008FE01A9606AFFF755FFA0B100200DE062
:1079040004F12401E0890AF0FCFD01A9606AFFF793
:1079140049FF0028E6D0002000E000200FB0BDE8B9
:10792400F0830520FAE70520F8E7000070B5F0B011
:107934000D4614461E4610AB0A4601462046FFF784
:1079440067FFA0B11F4B1B6813F0040F37D01E4B09
:107954001B68052B33DD1D4BD3F804351C4A0092FC
:107964004FF4A5621B49062003F034FB27E003AB68
:1079740001228DF80C20A28AADF80E200022049278
:107984008DF8142010AA06926278AD1AADF81C5036
:1079940008AA93E8030082E803000AAB04F10C028E
:1079A40092E8030083E80300A37D8DF83830236A4E
:1079B4000C93636A0D930F9605A800F0A7FB70B0B3
:1079C40070BD00BFDC320020D832002000B000407F
:1079D40054100400C70F040010B5D47D14B9FFF788
:1079E400A5FF10BDFFF7B0FEFBE700002DE9F04353
:1079F40085B004AF43781344C47D94B14FF48074CC
:107A04009C4273D3EFF3108C72B60024032C10DC69
:107A14003B4E6C2505FB046595F8445025B10134B3
:107A2400F4E74FF4C074EBE735466C2606FB0454C8
:107A340000E00024BCF1000F00D162B6002C5AD043
:107A440015460E46014601222046FFF7EBFC0028AE
:107A540053D02A463146A06E18F096FC294B1B6879
:107A640013F0040F3AD0284B1B68032B36DD6D4608
:107A7400B4F846E04FEA4E030833DB08A5EBC30332
:107A84009D460DF11008C446002312E0A26ED25C9C
:107A94004FEA121959001D48066816F809600CF8D7
:107AA400136002F00F0201310068825C0CF80120BF
:107AB40001337345EAD3002308F81E30144BD3F87E
:107AC4000435CDF80880134A0192134A009240F21B
:107AD400F7321249042003F07DFAAD462046FFF741
:107AE400A2FB2046FFF7EAFB002000E00920043750
:107AF400BD46BDE8F0830420F9E70420F7E700BFA2
:107B04003C380020DC320020D8320020E032002053
:107B140000B000401810040028100400C70F04002F
:107B240070B504460D461646808A01F077F80128A0
:107B34001AD1237BD3B1022B0BD094F91630002B2E
:107B440016DB237853B9324629462046FFF787FBD4
:107B54000BE02369002BF0D1102006E032462946C1
:107B64002046FFF743FF00E0102070BD1020FCE723
:107B74000720FAE708B50549054800F04FF800B9B1
:107B840008BD7846FEF7BEFFFAE700BF1102040005
:107B94007D01040010B5FFF7EDFF4FF4D87200210A
:107BA400134818F01AFC03F0A1FC0024114B1C60CC
:107BB40040222146104818F010FC104B104A1A605D
:107BC400104A5A604CF250329A600F49D9601A61D7
:107BD40004221A759C7508225A750C4802F09EF905
:107BE4000B4B18600B4B1C600B4803F03BFD10BDA6
:107BF4003C38002020380020E037002024380020C2
:107C040080969800F049020020A10700097E020036
:107C1400D8370020C83700204D6F020008B503464E
:107C2400B0FA80F040090A46B1FA81F14909884264
:107C340010D14BB1EFF3108072B608490B60084BBA
:107C44001A6048B962B606E0002AF3D1FFF792FF42
:107C5400002000E00E2008BD0020FCE7D4370020FF
:107C6400DC370020C0B110B58CB004460369B3B151
:107C7400C369B3B18369B3B1014601A8FFF780F8C2
:107C8400034610B118460CB010BDA28A216901A8A0
:107C9400FFF746FF0346F5E70E23184670470E2309
:107CA400F0E70E23EEE70E23ECE7D0B110B58CB06D
:107CB40004464068B8B1A269BAB1207C022816D043
:107CC400B8B194F90020002A15DB0A46214601A820
:107CD400FFF7AAF8A268616801A8FFF721FF0CB0BA
:107CE40010BD0E2070470E20F9E70E20F7E7102094
:107CF400F5E71020F3E70720F1E70000037B012BF1
:107D040001D00020704710B58AB000228388C3F3E5
:107D140086148DF800409B008DF801300B0E8DF811
:107D240002300B0C8DF803300B0A8DF804308DF8FB
:107D340005100623049301238DF81830838AADF8C7
:107D44001A3007928DF80820CDF80CD0036A0893F6
:107D54008DF81420C389ADF81630837D43B98DF8AE
:107D640024206FF0010102A8FFF79FFF0AB010BDA5
:107D7400024B5B7D8DF82430F3E700BF24380020EC
:107D840038B500240BE01E4A6C2303FB0423DB7983
:107D94005A1C01239340013B9D4228D00134032CFB
:107DA4002CD8174A6C2303FB042393F84430022B8A
:107DB400F4D16C2303FB042393F86430022BEDD13C
:107DC4006C2000FB0420816CFFF798FF0028E5D1AC
:107DD4000B4A6C2303FB04F3D11881F864008D6C07
:107DE400D35C002BCFD17846FEF78CFECBE7044B57
:107DF4006C2000FB0430FFF7F5FACFE738BD00BF75
:107E04003C38002008B5FFF77DFAFFF7B9FF0120E1
:107E140008BD00002DE9F04182B007460E46144625
:107E240098461046FEF788FF054620B1A28883884D
:107E34009A4210D312D82046FFF7C2F8B8B103789B
:107E44004BB123787BB1E1794B1C01219940013975
:107E54002046FFF753FF02B0BDE8F0810521FFF78C
:107E6400AFFB0025E7E77846FEF74CFEEBE7002D75
:107E74004FD0464B1B6813F0040F03D0444B1B68D0
:107E8400032B55DC2846FFF75BFA2B7B012B5DD0D7
:107E9400AA6CA17901238B401A42DCD11343AB6451
:107EA400A279EB799A4259D0E37D002B61D0082363
:107EB400B34260D1AB6EA079E27D002A60D0082481
:107EC4003246394604FB003018F05EFAAC6C2B786D
:107ED400002B57D0EB795A1C01239340013B9C4261
:107EE400B9D1022385F86430A96C2846FFF706FF50
:107EF400044643462A46B5F84610A86EFFF76CFDC3
:107F0400002CA8D1002385F864302846FFF76AFACC
:107F1400A1E72046FFF7FCFA05460028A9D1002175
:107F24002046FFF7EBFE02210020FEF7F9FF92E75F
:107F3400184BD3F80435A2790192174A009240F203
:107F4400A7221649042003F045F89BE795F864300E
:107F5400002B9DD12846FFF709FA99E79BB2E27DF1
:107F64002AB1082203FB0263A5F84630A2E70C22DB
:107F7400F8E70C239CE704212846FFF721FB6AE776
:107F84000C249DE77846FEF7BDFDA3E7DC32002014
:107F9400D832002000B0004044100400C70F040091
:107FA4002DE9F0418EB000284DD00546002A4CD072
:107FB400984614460F4600220C920D920CA9608834
:107FC4000AF030FB20B9002630460EB0BDE8F0813F
:107FD400226902F00102E168208903F053FA08B132
:107FE4000026F1E7226902F00102E168208903F02A
:107FF40015FA0646C0B901AA21462846FFF710F82B
:1080040004AB0EAA12E9030083E8030001F044FF65
:108014009DF8043083B1434601AA391F281DFFF798
:10802400F9FE01F059FFCFE72169002201F00101B7
:108034002089FEF759FFC7E7434601AA791E681C49
:10804400FFF7CAFCEDE70E26BEE70E26BCE710B527
:108054000C4691F84430022B0BD1022384F864308F
:10806400A16C2046FFF74AFE10B9002384F864305F
:1080740010BD7846FEF746FDEFE70000F8B500B303
:108084000546164B1F68F7B90E463C46B4420ED25D
:1080940005EBC4035B68CBB115F8340010F0800F16
:1080A40016D1B8B1FEF7EEFEB0B90134EEE70C4BD1
:1080B40043F8375003EBC7035E607B1C074A136029
:1080C40002E00E2700E004273846F8BD0E27FBE740
:1080D4000B27F9E70F27F7E70F27F5E7C837002045
:1080E400CC370020084B196861B110B501E0214676
:1080F4003CB10C680B79002BF9D0034802F0D3FE95
:10810400F5E710BD704700BFF039002038B50546CB
:1081140030B1104B1C68ACB10F4B01221A7004E053
:108124007846FEF7EFFCF4E724683CB12379002B92
:10813400FAD154F8043C28469847F5E7064B1B78D7
:10814400022B00D038BDFFF7CDFF034B00221A707D
:10815400F8E700BFF0390020EC39002010B50446E0
:1081640030B100232372211D034802F071FE10BDBB
:108174007846FEF7C7FCF4E7F039002010B5044652
:1081840050B10A4B1B78013BDBB2012B08D9211DEE
:10819400074802F088FE10BD7846FEF7B3FCF0E70E
:1081A400024B02221A7001232372F4E7EC390020F7
:1081B400F03900200A8883689B5A07339BB223F066
:1081C400030313449BB20288043A934200D9002368
:1081D4000B80704710B582B004468368CB1A02A99D
:1081E40021F8023DFFF7E6FFBDF80630A068184409
:1081F40002B010BD0088043880B27047438882689A
:10820400D018D15201238370704782680023937081
:10821400438083807047073189B221F0030189B21A
:10822400428883889A4204D29B1A99421CDC00201B
:10823400704710B59A420FD90488A41AA14215D9DF
:108244008B4215D3032C03D98368134404229A70F8
:1082540000234380184606E0826813449B784BB998
:10826400FFF7D3FF002010BD042070470020FAE779
:108274000420F8E70420F6E738B504460D46836881
:10828400828813448B4202D07846FEF73BFC0023DD
:10829400AB70211D2046FFF78DFFA288A36813440D
:1082A4009B78042B00D038BD0023A380FBE710B5D6
:1082B4000C468368428813448B4202D07846FEF70A
:1082C40021FC0023A37010BD10B5044630B12388EF
:1082D400042B07D92046FFF78DFF10BD7846FEF723
:1082E40011FCF4E77846FEF70DFCF3E770B506469B
:1082F40015460C46002944D0002E46D0B4F1005F48
:1083040008D94FF08053D3F80C3103F50023B4EBB4
:10831400832F0ED3B4F5000F08D94FF08053D3F850
:108324000C3103F50053B4EB832F02D37846FEF7E8
:10833400E9FB6B1E2344B3F1005F08D94FF0805270
:10834400D2F80C2102F50022B3EB822F0ED3B3F541
:10835400000F08D94FF08052D2F80C2102F50052D8
:10836400B3EB822F02D37846FEF7CCFB042D10D951
:10837400358000237380B380B460043D2580A370EE
:1083840070BD7846FEF7BEFBB6E77846FEF7BAFB4B
:10839400B4E77846FEF7B6FBEAE738B50446A0B181
:1083A4006288A36813449B78012B12D0A388A16828
:1083B4001944EFF3108572B68B78032B0DD0204649
:1083C400FFF723FF05B962B638BD7846FEF79AFB7E
:1083D400E6E77846FEF796FBE8E72046FFF7FAFE65
:1083E400A368C31A638000238370EBE7F8B50E46D5
:1083F40015460446C0B1DEB16288A36813449B7875
:10840400012B19D0E5B12046FFF7F4FEA84219D399
:1084140029462046FFF7FFFE0746A0B92946204615
:10842400FFF7ECFE30600EE07846FEF76BFBE2E708
:108434007846FEF767FBDFE77846FEF763FBE1E784
:10844400092700E009273846F8BD70B50C461646E2
:108454000546B8B1D4B1A378012B1BD12388B3420C
:108464001CD3FEB126800223A370E9182846FFF727
:10847400A1FE6A88AB889A4203D0AB6813440022F9
:108484009A7070BD7846FEF73DFBE3E77846FEF749
:1084940039FBE0E77846FEF735FBDFE77846FEF781
:1084A40031FBDEE77846FEF72DFBDBE738B50D46FA
:1084B400044668B185B1A288A36813449A78042A53
:1084C4000ED09A78022A13D0032A16D0052013E07E
:1084D4007846FEF717FBEDE77846FEF713FBEAE76D
:1084E400211D2046FFF766FEA288A3681344E8E72F
:1084F40003229A702B60002038BD7846FEF702FBF9
:108504000020F9E710B5044658B1A088A1680144D9
:108514008B78042B09D08878022814BF002001200E
:1085240010BD7846FEF7EEFAEFE72046FFF752FE5D
:108534000146F0E710B5044618B1A088A1680144CB
:1085440007E07846FEF7DEFAF7E72046FFF742FE3B
:1085540001468878C31EDBB2012BF6D9022814BF6A
:108564000020012010BD38B50C46054650B16CB151
:10857400A378012B0ED0032B11D121462846FFF7F7
:108584007BFE38BD7846FEF7BDFAF0E77846FEF785
:10859400B9FAEDE721462846FFF789FEF1E7784668
:1085A400FEF7B0FAEDE70000024B1878003018BF70
:1085B40001207047F439002010B5044680B1636887
:1085C4001BB123680BB1A36813B97846FEF79AFA76
:1085D400A3685A1E134207D10023E360236110BD30
:1085E4007846FEF78FFAEAE77846FEF78BFAF3E768
:1085F400F8B5F8B10446F9B18268FAB1EFF3108521
:1086040072B6026980680244E668B24203D1C5B911
:1086140062B6042513E027686368013830401A46BF
:1086240000FB037017F0B0FEE3680133E36055B953
:1086340062B604E00E2502E00E2500E00925284676
:10864400F8BD0425FBE70025F9E770B5F0B1044651
:108654008268EAB1EFF3108572B60669C268964281
:1086640010D0084621686268A368013B1E4006FBDF
:10867400021108B117F088FE23690133236165B93B
:1086840062B606E03DB962B6052502E00E2500E0BB
:108694000925284670BD0525FBE70025F9E701807B
:1086A400002343804260704738B5124C4FF4805524
:1086B4002A460021204617F090FE0F4B1C600AE06A
:1086C400002228212046FFF7EAFF238808332344A9
:1086D4006360303D1C46502DF2D8083D05D0002281
:1086E400A9B22046FFF7DBFF38BD7846FEF70AFA49
:1086F400F5E700BF103A0020104A002000B58DB005
:1087040004918DF8082003900CA8022300F82C3D56
:10871400FFF7FCFC0DB05DF804FB7047054B00222D
:108724001A609A60DA601A6103490A704FF0807225
:108734005A607047404A0020194A002038B50B4D52
:1087440000242C606C60AC60EC602C6100F04EFF87
:10875400074B5860074A9A60074ADA601C615C61FB
:10876400064B1C704FF080736B6038BD404A00208C
:108774001C4A0020AD88020000879303544A00205D
:1087840008B5084B1B7803B108BD0748074B0360C5
:1087940000F018FC064800F07BFE024B01221A7020
:1087A400F2E700BF184A0020344A0020CD890200B5
:1087B4001C4A002010B501F06FFB154B1B7BEBB975
:1087C400134B9B7BFBB9124B1A8A41F282639A4288
:1087D40004D8104B1B787BB1012300E00123A3B123
:1087E4000B4B01221A7300241C8299688818986024
:1087F4002046FFF783FF02E00023F0E7082401F09E
:108804006BFB204610BD0824F9E70824F7E700BFF6
:10881400404A0020544A002010B501F03DFB204B93
:108824005B7B9BB11E4B9B7BF3B91D4B1A8A41F2B8
:1088340082639A4204D81B4B1B782BB1012300E0BE
:1088440001239BB1012302E00023FAE700231C4625
:108854000BB3134B00225A731B7B4BB1012B0ED06D
:108864007846FEF74FF916E00023F0E70023EEE721
:10887400FFF7A0FF78B17846FEF744F90BE0084B08
:10888400002018604FF080725A60187318820246F4
:108894009968FFF733FF01F01FFB204610BD00BFAE
:1088A400404A0020544A002008B5214B1B7B7BB171
:1088B400012B20D07846FEF725F91D4A138A01338F
:1088C40013821B4B5B8A13B1013B194A538208BDC7
:1088D400174B1A8A41F282639A4204D8154B1B78CB
:1088E4003BB1012300E00123002BE6D0FFF794FF06
:1088F400E7E70023F8E70E4B1B8A41F282629342BA
:1089040004D80C4A127872B1012200E00122002A34
:10891400D3D042F2B012934207D9054B01225A73C5
:10892400FFF77AFFCDE70022F1E7FFF775FFC4E711
:10893400404A0020544A002010B5224B1B7B002BD8
:1089440031D1204B5B8A13BB1AB91E4B9B688B42F7
:1089540005D3E2B11B4B9B6801338B4217D2194BF1
:108964009B682A338B4220D3164B9B7BEBB9154B68
:10897400996000221A604FF080745C601A8242F69B
:1089840006545C825A731A73FFF7B8FE0DE062B1A5
:108994000C4B9B6801338B4207D10A4B01225A735B
:1089A400FFF73AFF01E0012B00D010BD002AFCD1F3
:1089B400044B9B688B42F8D1024B01225A73FFF798
:1089C4002BFFF2E7404A00200378042B00D07047C5
:1089D40043681B78002BFAD010B58468027E437E6E
:1089E400012A14BF00220122416904F11000FFF79B
:1089F400A3FF10BD124B1A685B689A421BD210B5D4
:108A04000F4B1B7B012B0ED00E4B04469A420CD20B
:108A1400EFF3108072B60A4A1368591C1160236080
:108A240058B962B610BD084BEFE7054B01225A73E3
:108A3400FFF7F2FEECE70F2070470020F2E700BFDB
:108A4400404A0020FFFF7F0000E0FF0008B568B93E
:108A54000C4B1B6893B10B4A1368013B136063B959
:108A6400094B00229A73FFF7D7FE06E0064B01225A
:108A74009A73044A13680133136008BD7846FEF7FD
:108A840041F8E8E7144A0020404A002000B58DB0C0
:108A9400ADF808008DF8102003910CA8032300F80A
:108AA4002C3DFFF733FB0DB05DF804FB014B9868D8
:108AB400704700BF404A0020054B1B7B012B02D0AE
:108AC400034B98687047024B98680138704700BFA1
:108AD400404A0020044B9B68584010F0010F00D01E
:108AE400013B1846704700BF404A0020014B187BE9
:108AF400704700BF404A0020084B1B785BB9074B06
:108B040001221A70064B98601973002018604FF008
:108B140080725A6070470820704700BF194A0020CD
:108B2400404A00202DE9F041002724E02449BC23D9
:108B340003FB04F3CA5A0132CA520221284602F046
:108B440089F801360221284602F054F880B11C4A03
:108B5400BC2303FB0423D3F80880B8F1000FE5D04D
:108B6400BC2303FB04F3D25A01463846C047DDE771
:108B74008EB90137FFB2022F1FD83C46BC2303FB3A
:108B840007F308330E4D1D4404350221284602F034
:108B940031F80026DAE70021284602F0C3F8082855
:108BA400E7D1074BBC2202FB0434A368002BE0D0BE
:108BB4000022044938469847DBE70120BDE8F081EC
:108BC4005C4A00208010040008B508238373102336
:108BD400437300F11C0343610323037300F118037F
:108BE40003610C3002F070F808BD000010B50848AD
:108BF40001F094F9074B1860002406E0064BBC20F2
:108C040000FB0430FFF7E0FF0134022CF6D910BD5D
:108C1400298B0200584A00205C4A002018B1830BBB
:108C2400024AD05C70470020704700BF90100400D7
:108C340012DF704700B583B01378A3B1042B14D1AD
:108C4400072110F8013C163B152B31D8DFE803F05F
:108C540059303030303030303030303030303030E7
:108C64003030302E0F3A517DEBE70021E9E702293D
:108C740001D007291CD110F8021C013901F050FD64
:108C8400B0B1264B1B6813F0400F11D0244B1B6866
:108C9400012B0DDD234BD3F804350190224A0092B9
:108CA4008A222249022002F095F901E0022902D029
:108CB40003B05DF804FB10F8021C0139C9B211F0CD
:108CC40001FDF5E70229F3D110F8021C0139C9B2FC
:108CD40002F03AFC0028EBD0104B1B6813F0400F55
:108CE400E6D00F4B1B68012BE2DD0E4BD3F80435A5
:108CF40001900F4A00929D220C49022002F06AF969
:108D0400D6E701884FF6E4639942D1D110F8021CEA
:108D140003390230FDF746FECAE700BFDC3200200B
:108D2400D832002000B000401411040007110400E0
:108D34004011040070B58AB00AF074FF58B30646B7
:108D440000238DF8103005AC05460FCD0FC42B68F9
:108D54002360727D052A04D9337D03F00F03072BAA
:108D640020D1184B1B689BB104AB0393337DC3F331
:108D740003038DF80430737D062B1DD9063B8DF853
:108D8400053006F11D0302930E4B1B6801A898479A
:108D940030460AF027FF0AF05FFF80F00100C0B2FE
:108DA4000AB070BD307D04AB063A06F11D0100F037
:108DB4000F0009F0DBFCD4E700238DF805300293A3
:108DC400E2E700BF944C002070B582B02E4B1B78B4
:108DD400002B50D1002852D0067A0F2E01D0072E36
:108DE4004FD10446C06870B1FDF79EFE0DF1070037
:108DF400FFF71EFF054600283ED19DF80730012BE2
:108E040004D0022538E0FDF79DFEEFE7FDF7B0FE44
:108E140000F02CFB304600F0F5FFE07800F04AF952
:108E240000F004FF0AF03CF918480AF0B1FF09F019
:108E34003BFEFFF7DBFE00F049FD03F027FD204673
:108E440001F0D6FB2046FEF7A5FE02F0EFFE204619
:108E5400FFF72AFCFDF7A6FD18B1062801D0054648
:108E64000AE00B4809F064FC0A4B00221A60064B26
:108E740001221A7000E00825284602B070BD0E25B4
:108E8400FAE70725F8E700BF914C0020398D02006E
:108E9400CC320020944C002030B583B0204B1B789A
:108EA400002B35D01F4B1B78002B33D100F0E4FE90
:108EB400C0B90AF017F9044668BB0AF053FE01F082
:108EC400A9FBFDF76FFD0546F0B106281CD0164B33
:108ED4001B6813F4804F21D0144B1B68012B05DC55
:108EE400044618E07846FDF70DFEE2E7104BD3F890
:108EF400043501900F4A00924FF4C4720E490220C7
:108F040002F068F82C4606E0064B01221A7002E0D3
:108F1400082400E00824204603B030BD0446FAE7E4
:108F2400914C0020904C0020DC320020D8320020EC
:108F340000B00040AC1004000711040010B5094B48
:108F44001B785BB10AF0DEF8044640B90AF020FE53
:108F540000F0FCFE034B00221A7000E008242046B7
:108F640010BD00BF904C002030B583B004460D46C0
:108F74000E4B1B6813F4804F03D00D4B1B68062B5C
:108F840005DC29462046FEF76DFE03B030BD094BD3
:108F9400D3F80435084A0192084A00924FF4D77274
:108FA4000749072002F016F8EBE700BFDC32002087
:108FB400D832002000B00040941004002C100400AB
:108FC4000711040008B5FFF7C9F808BD08B500F09B
:108FD40003FE002008BD7047064A1368013313607E
:108FE400B3F1704F02D0034B186870471346012247
:108FF4001A60F8E7984C002010B5044618B1002315
:109004002360636010BD7846FDF77CFDF7E738B553
:109014000C46054668B184B100236360EFF3108306
:1090240072B62A686AB16A6854606C6003B962B641
:1090340038BD7846FDF766FDEDE77846FDF762FD3D
:10904400EAE72C60F1E710B5044658B1EFF310835A
:1090540072B6206808B142682260226832B103B94E
:1090640062B610BD7846FDF74DFDEFE76260F6E7A6
:1090740010B5044608B1206810BD7846FDF742FDDE
:10908400F9E735DF7047000008B54FF0FF30FFF710
:10909400F8FFBFF34F8F0549CA6802F4E062044B3E
:1090A4001343CB60BFF34F8F00BFFDE700ED00E03B
:1090B4000400FA05072814D8DFE800F0080C1504AA
:1090C400110F0A066420704714207047FA20704775
:1090D4001E2070474FF4FA707047322070474B20BF
:1090E4007047FA207047962070470000024B58687A
:1090F400103840B2704700BF00ED00E0034600287E
:109104000FDB5B11084A52F82330424200F01F0083
:1091140002F01F0258BF504223FA00F000F0010091
:10912400704700F11F03ECE700E100E046DF704701
:10913400F8B504460D464B1EDBB2012B09D80022BC
:1091440022616261A261E2612046FFF7EFFF01261E
:1091540016E07846FDF7D6FCF1E7CA5CC818520061
:10916400D2B2407842EAD012CA5401339BB20E2BD9
:10917400F3DDCB7B5B00CB73002F08DB0136F6B24B
:10918400AE420BD8214611F9207F0023EFE794F873
:109194002F3083F0870384F82F30EFE7F8BD2DE9F3
:1091A400F04190B084460C4696461F4602F10F06E5
:1091B40036111FFA86F804AD0068DCF80410DCF8F8
:1091C4000820DCF80C300FC50EF00F05B8F1000FC5
:1091D40002D085B1002300E0002398466BB1012141
:1091E40004A8FFF7A5FFB8F1000F1BD0B0B20138F7
:1091F400000110230EE00123EFE70221F0E7013B19
:109204009BB22218D25C10A9194411F8101C4A40D0
:109214000DF80320002BF2D100250C950D950E9529
:109224000F9534E0B1B20139ADB22A4604EB011115
:10923400684617F0A9F880230DF805306B1C03E08D
:1092440000220DF8032001330F2BF9DD10230AE06F
:10925400013B9BB21DF8032010A9194411F8101CFE
:109264004A400DF80320002BF2D1D5E7013B9BB215
:1092740010AA1A4412F8102C2118C95C4A4008A9F3
:10928400CA54002BF2D104A8FFF750FF0135B3B242
:10929400013BAB4202DD28011023F2E710230AE070
:1092A400013B9BB210AAD11811F8402C11F8101CE4
:1092B4004A4008A9CA54002BF2D104A8FFF736FF8C
:1092C4000CAC0FCC38607960BA60FB6010B0BDE8BC
:1092D400F08100000A4B1B68834207D0084B1B68CF
:1092E40053B15A69824205D01346F9E74269044BE7
:1092F4001A6001E042695A6100230370704700BF9D
:10930400A04C002010B50446134B1B684BB14068B9
:10931400114B1B685B68C31A002B02DB0E4B1968E8
:109324000DE00D4B1A6862611C600B4A938801338F
:109334009BB2938063B10123237010BD19464B691E
:109344001BB15A68121A002AF8DB63614C61ECE71E
:109354007846FDF7D7FBEEE7A04C002038B505466C
:1093640019E06369214A13600023636193889BB207
:10937400591E89B291800BB3A3681BB302232370D7
:10938400A36821692846984700F030F905462378F8
:10939400DBB2022B1AD0154B1B6833B3134B1B687B
:1093A4005B685B1B642B20D5104B1C682378DBB2F5
:1093B400012BD6D07846FDF7A5FBD2E77846FDF71A
:1093C400A1FBD9E77846FDF79DFBD7E7E26812B920
:1093D40000232370DFE76368134463605B1B642B23
:1093E400F9D42046FFF78EFFD5E738BDA04C002006
:1093F40008B5124B1B6873B1104B1B685B68C31A2A
:1094040013F1640F08D402230D4A00F16401012012
:1094140000F0B0F870B908BD084B19680223084A77
:109424004968012000F0A6F80028F4D07846FDF73A
:1094340069FBF0E77846FDF765FBECE7A04C0020FC
:109444006194020008B500F0D1F8FFF787FF00F03F
:10945400CDF8FFF7CDFF012008BD000008B5024B91
:10946400186800F07BFD08BD9C4C002008B5054B36
:1094740000221A605A60044800F050FD034B186043
:1094840008BD00BFA04C0020499402009C4C002061
:1094940010B5044600F036FE80B19CB1A368ABB1B0
:1094A4002378DBB2012B15D0002363612046FFF73C
:1094B40029FF00F09BF8FFF79BFF10BD7846FDF7EE
:1094C40021FBEAE77846FDF71DFBE7E77846FDF761
:1094D40019FBE5E77846FDF715FBE5E710B504460B
:1094E40000F010FE50B16CB12046FFF7F3FE0023EC
:1094F400636100F07BF8FFF77BFF10BD7846FDF752
:1095040001FBF0E77846FDF7FDFAEDE738B50446D0
:109514000D4600F0F7FD70B18CB12046FFF7DAFE7E
:109524000023636165602046FFF7ECFE00F05EF8FF
:10953400FFF75EFF38BD7846FDF7E4FAECE77846BE
:10954400FDF7E0FAE9E7000010B4094B00F150021E
:10955400002443F8224000F110040122A240C3F881
:10956400042300F5A87043F820105DF8044B7047FD
:1095740000800040022825D838B533F0030423D1F5
:10958400EFF31084124D2C6072B6124C44F8202074
:10959400114A42F82010114A1354114B002243F887
:1095A4002020104B1B7833B10F4B1B68CA1A07D409
:1095B4001146FFF7C9FF064B186838B962B604E0D4
:1095C4005A1AF5E7072070470A2038BD0020FCE747
:1095D400CC4C0020AC4C0020C04C0020A84C0020F7
:1095E400D44C0020B84C0020BC4C0020EFF3108376
:1095F4000C4A136072B60C4B1B787BB10B4B0022E8
:10960400C3F84C210122DA64D3F84C05084B1B68DB
:109614001844044B1B6803B962B67047054B1868BD
:10962400F7E700BFCC4C0020B84C0020008000407D
:10963400BC4C0020D04C002070B5002418E01F4B17
:10964400002243F82420012303FA05F51C4BC3F838
:109654000853FFF7CBFF1B4B1B5D13F0020F21D008
:10966400B04704F15003164A002142F82310013494
:10967400022C21D804F15003114A52F82330002B54
:10968400F5D0D2F8043304F11005EB4013F0010FC8
:10969400EDD00A4B53F82460002ED0D17846FDF764
:1096A40031FACCE70146304600F0E3FB0028D8D07D
:1096B4007846FDF727FAD4E770BD00BFAC4C002014
:1096C40000800040A84C002070B50546002414E03A
:1096D400981A27E05E1A29E02946184600F0C9FBCB
:1096E400002836D12A4B53F824302BB101221A60BA
:1096F400274B002243F824200134022C3AD8254B6E
:1097040004F5A872002143F8221004F1500243F832
:10971400221053F82230204B53F824201F4B1B688F
:10972400D01AD5D405F17801CE1AD3D4864214D9EF
:109734001B4B53F82430002BD4D0194A002142F893
:109744002410184A125D12F0020FC5D0284698471B
:10975400C8E77846FDF7D6F9C4E7114B53F824302F
:10976400002BC9D0E0B2511B02D4FFF7EDFEC3E7D2
:10977400A91AFAE70C4B1B681BB90C4B4FF4807207
:109784001A60064B1D600A4B01221A7070BD00BF9F
:10979400D44C002000800040C04C0020BC4C002071
:1097A400AC4C0020A84C0020CC4C002000E100E090
:1097B400B84C0020002300E00133022B0ED80F4ADE
:1097C400D25C12F0010FF7D000220C49CA540C49A4
:1097D40041F823200B4941F82320EDE70A4B186098
:1097E4000A4B00221A700A4B4FF0FF32C3F80823C9
:1097F400084B4FF48072C3F880217047A84C0020B6
:10980400AC4C0020D44C0020D04C0020B84C00209C
:109814000080004000E100E030DF704731DF704736
:1098240010B402684368A2EB7312846883EAF433C9
:109834000360C1680C444460114481601344C360F4
:1098440018465DF8044B704770B582B00D46064665
:1098540008B100240BE07846FDF754F9F9E79DF8C8
:1098640007103019FFF7DAFF9DF807301C44A542B2
:109874000DD90DF10700FFF7CFFF9DF80730002B3E
:10988400F7D02A1B9342EAD98DF80720E7E702B004
:1098940070BD000030B583B00546002402A840F82E
:1098A400044D0421FFF7D0FF074B2B60019B6B6035
:1098B400AB60EB6003E02846FFF7B2FF0134132CE2
:1098C400F9D903B030BD00BFED5EEAF1704748DF5F
:1098D400704749DF70474ADF704700002DE9F00FF9
:1098E4001F4BD3F804650027837AA3BB1D4BD3E930
:1098F4000023B41A24F07F4A4FF0000B4FEA4A12B7
:109904004FEA4B13B2EB0A0263EB0B03590241EA31
:10991400D2514FEA422C0D461CEB0A0145EB0B02D7
:109924004FEA821949EA91694FEA81181346B8EB64
:10993400010269EB03031AEB02044BEB0305E30B8F
:1099440043EA4542436813444360064BC3E9006756
:10995400BDE8F00F7047002383720268F2E700BF8E
:1099640000B00040404D002010B504460023C36001
:109974000361FFF7B3FF2368084A9268226001215C
:10998400217503B9064B991AA161B1F57A7F01D308
:109994009A4202D94FF47A73A36110BD2C4D002072
:1099A40080969800094B03221A75094A9A611A682D
:1099B40040F6D8639A4204D8054B40F6D8629A60C0
:1099C4007047034B43F2B0629A6070470C4D00201D
:1099D4002C4D002008B50B4B1B78012B05D0022B16
:1099E4000BD07846FDF78EF803E0022303750123BC
:1099F4008372044B00221A7008BD03230375024BC3
:109A04008361F6E73D4D00202C4D002038B5054616
:109A140000240475012343724068FFF755FE09F0E2
:109A240029FC6B682A6813440A490968283101FB38
:109A340002F1094AA2FB0121A3EB91410323074A46
:109A440078392046FFF796FD00B938BD7846FDF712
:109A540059F8FAE7284D002083DE1B43A999020038
:109A640010B50C4631B1036901330361826903689F
:109A740013440360C3680133C36001220275826921
:109A840052088261012B0DD0022B19D08269036820
:109A9400134417498B4222D840F6D7639A4221D8FF
:109AA40000231DE0B2F5FA7F05D040F6D8639A4250
:109AB400ECD88361EAE7002CF7D100238361E5E762
:109AC4000369022B06D0012BE0D1002CDED1002348
:109AD4008361DBE70268064B9B1A8361D6E70023A8
:109AE40013B110BD0123FBE7FFF790FFF9E700BFB7
:109AF40080969800437A1BB90E4B00221A70704767
:109B040010B5044609F0D2FB6068226810440A4B81
:109B14001B68283303FB02F3084AA2FB0323A0EBD0
:109B240093407838FFF746FE00236372014B00220E
:109B34001A7010BD3C4D0020284D002083DE1B43CD
:109B440008B5224B01221A72214B1B7813B1214B09
:109B54001B781BB31D4B00221A7504281AD8DFE8A2
:109B640000F00314110C07001848FFF7FDFE1EE077
:109B740001211648FFF774FF19E000211348FFF78D
:109B84006FFF14E009F030FB11E0FFF755FD09F019
:109B94005FFB0CE07846FCF7B5FF08E0FFF726FD15
:109BA4000A4B5A68801A18601846FFF713FF074BD0
:109BB4001B7D023BDBB2012B04D904480023037252
:109BC400143008BD0148FFF795FFF6E70C4D00205F
:109BD4003D4D00203C4D002008B5043803280DD825
:109BE400DFE800F00D190902FFF773FE30B1784683
:109BF400FCF788FF02E07846FCF784FF08BD0A48BA
:109C040040F6D8638360FFF766FE0028F6D07846F6
:109C1400FCF778FFF2E70448FFF75DFE0028EDD07B
:109C24007846FCF76FFFE9E72C4D002010B40D4A8D
:109C34000023137013710121517143F2B0649460D5
:109C440043F69824D460084A1060084A1370084AFE
:109C54001370084A137253721360917253605DF863
:109C6400044B70472C4D0020284D00203C4D002013
:109C74003D4D00200C4D002008B50648FFF727FE97
:109C8400034608B1184608BD0348FFF724FE0346FF
:109C9400F8E700BF459B02002C4D0020084B1B7DBC
:109CA400032B09D0074B1B78012B07D0022B01D0C3
:109CB4000020704701207047012070470120704741
:109CC4000C4D00203D4D0020014B5868704700BFEB
:109CD4000C4D00200E4B5B7A0BB90020704710B579
:109CE4000B4B5C681A6814440A4B1B68283303FB4B
:109CF40002F3094AA2FB0323A4EB9344783CFFF745
:109D040075FC0346201A00D410BD181BFCE700BFE5
:109D14000C4D0020284D002083DE1B43014B187A94
:109D2400704700BF0C4D0020EFF3108372B6054A54
:109D3400527A22B1044A4FF48071C2F8001103B977
:109D440062B670470C4D002000E100E008B5034BFB
:109D540001221A70FFF7E8FF08BD00BF3D4D002047
:109D640008B5094B1B782BB148B9084B1B7813B1C4
:109D7400012300E00023044A107013B908BD002336
:109D8400F9E7FFF7D1FFF9E73C4D00203D4D0020F6
:109D940008B50378012B10D013B1022B06D008BDEF
:109DA4004368002BFBD080689847F8E74368002B92
:109DB400F5D0C16880689847F1E74368002BEED07E
:109DC40080689847EBE70000044B1B780F2B04D006
:109DD400034B4FF48022C3F8002170478C4E0020BF
:109DE40000E100E010B501460548FEF701FC20B98A
:109DF4000446FFF7E9FF204610BD0424FBE700BF3B
:109E0400484D002010B50C4C20700C480C4B0360DE
:109E1400102343608360FEF7CFFB0A48FFF7ECF89A
:109E240023780F2B07D05B01DBB2074A82F8123389
:109E34004FF48023136010BD8C4E0020484D002049
:109E44005C4D0020904E002000E100E030B585B06C
:109E54000C46054648B101238DF800300195029463
:109E64006846FFF7BFFF05B030BD7846FCF74AFEF1
:109E7400F1E730B585B00C46054648B100238DF8AE
:109E84000030019502946846FFF7ACFF05B030BD81
:109E94007846FCF737FEF1E710B5EFF3108472B69D
:109EA4000A490A68531C0B6042B9094A12780F2AFE
:109EB40004D0084A4FF48021C2F8801013B104B9C9
:109EC40062B610BD7846FCF71DFEF8E75C4E002034
:109ED4008C4E002000E100E010B5EFF3108472B660
:109EE4000B4B1B687BB10A4A1368013B13603BB9F7
:109EF400084B1B780F2B03D0074B4FF480221A60BA
:109F040004B962B610BD7846FCF7FCFDEBE700BF70
:109F14005C4E00208C4E002000E100E010B50446A9
:109F240080B10C4B1B68082B10D8EFF3108372B66A
:109F3400084A1068411C1160074A42F8204003B9DE
:109F440062B610BD7846FCF7DDFDEAE77846FCF71B
:109F5400D9FDEAE7604E0020644E002038B504467F
:109F64000D4B1B68834213D9EFF3108572B6610958
:109F74000A4A04F01F04012303FA04F452F82130BE
:109F8400234342F82130FFF71FFF05B962B638BDFD
:109F94007846FCF7B7FDE7E7604E0020884E0020C6
:109FA40070B50D461646044658B175B1EFF31083EB
:109FB40072B6A560E66000222274246003B962B61A
:109FC40070BD7846FCF79EFDEFE77846FCF79AFDF6
:109FD400ECE7000038B5044690B1A368A3B1EFF3F1
:109FE400108572B6237C9BB901232374214609484A
:109FF400FFF70DF8FFF7E8FE002005B962B638BD9B
:10A004007846FCF77FFDE8E77846FCF77BFDE6E75A
:10A014001120F2E7904E002010B5044608B1207CD0
:10A0240010BD7846FCF76EFDF9E7000070B584B00A
:10A034002C4B1B7823B901252A4B1D7000240AE000
:10A044007846FCF75FFDF6E7274B53F82430984732
:10A054000646F0B10134254B1B68A3421ED96109A1
:10A06400234A52F8213004F01F00C34013F0010FBB
:10A07400F0D0EFF3108372B6012606FA00F052F81E
:10A08400216026EA000642F82160002BDCD162B68A
:10A09400DAE72046FFF762FF3546DBE71548FEF7AF
:10A0A400D2FF07E0A368E0689847002323741148AF
:10A0B400FEF7C9FF50B10468237C002BF2D1784627
:10A0C400FCF720FDEEE76846FFF762FE69460A48A2
:10A0D400FEF7BBFA0028F6D0024B00221A7028467D
:10A0E40004B070BD984E0020644E0020604E0020E5
:10A0F400884E0020904E0020484D002008B5FFF700
:10A1040095FF08BD00B583B0FEF7F0FF8DF807009A
:10A114009DF807305BB213F1100F18D09DF807308B
:10A124005BB2002B21DB03F1604303F5614393F839
:10A1340000335B090093154B1B78009A934220D09F
:10A14400009A934217D3002003B05DF804FB0F4B31
:10A154001B780F2B07D01220FEF7D0FF08B901207F
:10A16400F2E70020F0E70120EEE703F00F03084ACE
:10A17400D35C5B09DEE71220FEF7C0FF18B10020B4
:10A18400E2E70120E0E70120DEE700BF8C4E00207B
:10A1940014ED00E046DF704770B58CB003460E4600
:10A1A40015466C46006859689A68DB680FC43068C5
:10A1B4007168B268F3680FC46846FFF7EBFF08AC38
:10A1C4000FCC28606960AA60EB600CB070BD08B564
:10A1D400FEF7E5FF08BD08B501F07FF808BD08B536
:10A1E40001F0B5F808BD38B5032900F29380DFE823
:10A1F40001F0023535671970817A5A7861F30602E5
:10A204005A70C17AD2B261F3C7125A70C168C1F3ED
:10A21400074201F47F442243090401F47F010A4305
:10A2240000219A70C2F30724DC70120C1A7104899D
:10A23400220A42EA0422A3F80520D971197201699D
:10A244000A0202F47F0242EA0162080A00F47F4033
:10A25400024342EA1162C3F8092038BD19705978E3
:10A2640001F0800162F3C7115970C168C1F307425C
:10A2740001F47F442243090401F47F010A439A70E4
:10A28400C2F30721D970120C1A7101890A0A42EA31
:10A294000122A3F8052041880A0A42EA0122A3F810
:10A2A400072001690A0202F47F0242EA0162080AF5
:10A2B40000F47F40024342EA1162C3F80920CCE76C
:10A2C400197000245C70C168C1F3074201F47F4532
:10A2D4002A43090401F47F010A439A70C2F3072157
:10A2E400D970120C1A7101890A0A42EA0122A3F8F0
:10A2F4000520DC711C7201690A0202F47F0242EA41
:10A304000162080A00F47F40024342EA1162C3F882
:10A314000920A2E77846FCF7F5FB9EE770B584B008
:10A324000E461446054668B162B1002300930193BA
:10A33400029303932346324629466846FFF747FFB4
:10A3440004B070BD7846FCF7DDFBEEE7F0B585B0F0
:10A354000F4614461D46064618B112B10BB10B9BAD
:10A3640013B97846FCF7CEFB6B463A463146204695
:10A37400FFF72DFF0B9B9DF8282029466846FFF721
:10A3840026FF05B0F0BD00002DE9F04786B000AF10
:10A39400884615469946044608B101B113B9784672
:10A3A400FCF7B0FB05F1110605F1100A05F11803DD
:10A3B400DB086A46A2EBC3039D46254B1B6807F1E5
:10A3C400180040F8043D6A460421FFF7A7FF3B1D2F
:10A3D400102221466846FFF7FAFE2A46414668469F
:10A3E40015F0D2FF01230DF80530EA186B4692B23E
:10A3F4006946381DFFF7EBFE9DF80F3003F07F032D
:10A404004C4604F8013B2A46414604A815F0BCFF1B
:10A4140002230DF80A30B6B2234632466946381D87
:10A42400FFF7D5FE20686168A268E3680090019197
:10A434000292039303230DF80A3009F11103324603
:10A444006946381DFFF7C3FE1837BD46BDE8F087DF
:10A454006C11040070B588B00D46064600B3F9B11E
:10A46400114C6368039304AA042103A8FFF756FF61
:10A4740004AB102231461846FFF7A9FE083494E8CD
:10A48400030001908DF8081004AB052201A91846B9
:10A49400FFF79DFE06AB03CB2860696008B070BD72
:10A4A4007846FCF72FFBDBE76C11040070B586B02F
:10A4B4000D460646F8B1F1B1114C2369019302AA85
:10A4C40004210DEB0100FFF729FF02AB10223146F6
:10A4D4001846FFF77CFE636906A941F8183D02ABF4
:10A4E40004221846FFF773FE9DF8173003F03F036C
:10A4F4002B7006B070BD7846FCF704FBDCE700BFA8
:10A504006C11040010B5044658B123787BB1E3689C
:10A51400B3F1807F0DD294F90A30002B05DB0120C2
:10A5240006E07846FCF7EEFAEFE7002000E00020B2
:10A5340010BD0020FCE730B587B00446037B8DF8DE
:10A54400043002688368D27A22B3082213440933A0
:10A554000293236803936368049305A901A801F097
:10A5640087F8E0B1237B012B09D02568FEF7A4FA14
:10A57400286120680C30FEF73DFA054660B9216871
:10A58400059800F028F9059B093323610025284626
:10A5940007B030BD0422D9E701F0E6F8F7E7042557
:10A5A400F5E7000030B583B00446012002F0A2F9BB
:10A5B400054668B1A37A012B15D92378012B0AD05B
:10A5C4000A4B1B6823B1A27A618820899847054603
:10A5D400284603B030BD6946608808F023F8002897
:10A5E400EED00025F4E70025F2E700BF9C4E0020E2
:10A5F40008B548B14268064B1A60FEF79FF8FEF7AB
:10A604008CF801F01DFD08BD014B00221A60F4E72F
:10A614009C4E002008B5FEF7B3F801F051FD08BDCB
:10A6240010B5044650B1236863B123685B696BB10C
:10A63400002323732046FFF77EFF10BD7846FCF706
:10A6440061FAF0E77846FCF75DFAEEE77846FCF746
:10A6540059FAEDE710B5044690B12369A3B1236814
:10A66400B3B123685B69BBB1206900F01AF9002318
:10A674000246A168206800F072FA01F04DF810BD9E
:10A684007846FCF73FFAE8E77846FCF73BFAE6E75A
:10A694007846FCF737FAE4E77846FCF733FAE3E761
:10A6A40070B588B004460E461546837A013B837222
:10A6B400039005924FF0FF33049301238DF8183073
:10A6C40003A8FFF738FF98B1104B1B6813F0020F73
:10A6D40016D00F4B1B68012B12DD0E4BD3F804353B
:10A6E4000D4A009291220D49022000F073FC07E00C
:10A6F4002A463146079815F047FE03A8FFF7AAFF3C
:10A70400A37A0133A37208B070BD00BFDC3200200D
:10A71400D832002000B00040C4110400B711040076
:10A7240070B590B000283FD0044616460D4600F0A0
:10A73400BCF8021B214608A815F026FE002300934E
:10A7440008AB2246294602A800F0C8F9044610B115
:10A75400204610B070BD02A8FFF7D4FE0028F7D041
:10A76400079BB3B1294602A800F093F8C5B233465B
:10A7740002AA29460DF12900FDF712FC044602A89D
:10A78400FFF710FF48B90599BDF81000FCF72CFA43
:10A79400DEE77846FCF7B6F9E4E72A460DF129012D
:10A7A40002A8FFF77DFFEEE70E24D1E74B78DB0923
:10A7B400C3724B7803F07F0383728A78CB781B02D1
:10A7C40043EA02430A791343C3604A798B7943EA23
:10A7D40002230381704738B50D460446002840D053
:10A7E400002D42D02889FEF719FA012841D195F9A4
:10A7F4000A30002B41DBEB68B3F1807F41D26B69F7
:10A80400002B42D02B6903F00102237803F07F036D
:10A8140043EAC21323706A69127803F0800302F0DA
:10A824007F0213432370EA7A637803F07F0343EAD9
:10A83400C213DBB26370AA7A03F0800302F07F02D2
:10A8440013436370EB681A0CA2701A0AE270237146
:10A854002B891A0A6271A3716B881A0AE271237236
:10A8640038BD7846FCF74EF9BAE77846FCF74AF962
:10A87400B8E77846FCF746F9B9E77846FCF742F9B9
:10A88400B9E77846FCF73EF9B9E77846FCF73AF9B8
:10A89400B8E7C37A1BB90420081A0938704708209E
:10A8A400FAE709387047073070470130704770B5D0
:10A8B40088B004460D461646002300938DF80430F4
:10A8C4000269130203F47F0343EA0263110A01F4E9
:10A8D4007F410B4343EA1263CDF805302846FFF766
:10A8E400E2FF0368CDF8093082888379ADF80D2042
:10A8F4008DF80F30606904AA69461130FFF74CFCEB
:10A904003046FFF7D2FF04462846FFF7CEFF062362
:10A9140008E0013B9BB2C25C08A9194411F8101C61
:10A924004A40E254002BF4D108B070BD2DE9F04345
:10A9340095B004AF04460D4691461E4697F86480D0
:10A94400002387F83F303B84FB6107F130033B6110
:10A954001046FFF7A8FF78613046FFF7A4FF78623E
:10A964003B6E6361324649462046FFF7A0FF3146FD
:10A974002046FFF71BFF2089FEF750F901281DD060
:10A984004FF00009B9F1000F4BD0E37A002B33D01C
:10A994000823DBB287F82C30ED1A073DADB23D83B6
:10A9A4007B691D44BD62B8F1000F27D0B8F1010FD7
:10A9B4003DD07846FCF7A6F8002120E0A5F1090275
:10A9C400E37A2BB108239A4204D24FF00009D9E765
:10A9D4000423F8E7E1682089FCF7E0F8814610B128
:10A9E4004FF00009CEE7391D208907F01BFE00282F
:10A9F400C8D14FF00109C5E70423CAE7002107F1D4
:10AA0400300300222046FFF7EEFB63690133FB604D
:10AA140007F13F0107F10C00FFF7E1FB97F83F3026
:10AA24003BB997F83F004437BD46BDE8F0830321A6
:10AA3400E5E7F379307A40EA03206080FEF7EEF828
:10AA440020701F4B1B6813F0020FEAD01D4B1B68CC
:10AA5400032BE6DD6C46B7F818C04FEA4C03083305
:10AA6400DB08A4EBC3039D460DF1100E75460023CD
:10AA740011E07A6AD25C4FEA12185900124806684B
:10AA840016F8086005F8136002F00F02013100683F
:10AA9400825C6A5401336345EBD300230EF81C3007
:10AAA4000A4BD3F80435CDF808E0094A0192094A63
:10AAB4000092E6220849042000F08CFAA546B0E78B
:10AAC400DC320020D8320020E032002000B0004008
:10AAD4003412040028100400271204002DE9F04762
:10AAE40084B08846154699469DF83070064618B1DC
:10AAF40012B10BB19A4202D17846FCF703F82878D8
:10AB0400C009FDF7E7FF30610023736195F800A0E9
:10AB14000AF07F0A0293039301E0029BCBB103AADC
:10AB240002A9504607F05AFC0024012CF5D804ABC6
:10AB340003EB840353F8083C002BEED001970093F9
:10AB44004B462A4641463046FFF7F0FE18B9013419
:10AB5400EBE7052000E0002004B0BDE8F087F0B585
:10AB64008FB00C4615461F46064650B16DB1012FF5
:10AB74000FD897B1012F39D07846FBF7C3FF0021D6
:10AB84000CE07846FBF7BEFFF0E77846FBF7BAFF28
:10AB9400EDE77846FBF7B6FFEBE700210AAB0022AE
:10ABA4003046FFF720FBF37A13BB04238DF82430DF
:10ABB4007369013301930AAB02932846FFF773FECE
:10ABC40003900790A31C9BB2ADF810300022ADF89F
:10ABD400182005921844089001A8FFF7FCFA2A46A9
:10ABE40029463046FFF763FE0FB0F0BD0321D5E7D9
:10ABF4000823DBE738B50D460446C8B12378AB42D9
:10AC04001AD9EDB962682378134413F8013CA1788A
:10AC14000B44DBB212789B1ADBB2CBB16368585D8C
:10AC2400A378013B1840A368627802FB003038BD6A
:10AC34007846FBF767FFE1E77846FBF763FFE0E759
:10AC44006268531913F8013C525D9B1ADBB2E4E7C6
:10AC54000020ECE738B50C460546A0B12B78A3429A
:10AC640015D9C4B96A682B78134413F8013CA97840
:10AC74000B44DBB212789B1ADBB21BB16A68135D1A
:10AC84000133135538BD7846FBF73CFFE6E77846B9
:10AC9400FBF738FFE5E76A68131913F8013C125D06
:10ACA4009B1ADBB2E9E710B5044608B1002307E0BC
:10ACB4007846FBF727FFF9E762680021D154013396
:10ACC40022789A42F8D810BD10B5044643786BB187
:10ACD4002378012B0ED9A36883B1636893B1A37859
:10ACE400A3B15A1E134217D0002310E07846FBF795
:10ACF40009FFEDE77846FBF705FFECE77846FBF73D
:10AD040001FFEAE77846FBF7FDFEE8E700232BB1F5
:10AD14002046FFF7C8FF10BD0123F8E77846FBF78C
:10AD2400F1FEF5E738B50C46054658B12B78A34239
:10AD34000CD97CB16B681A1912F8010C1B5DC01A8E
:10AD4400C0B238BD7846FBF7DDFEEFE77846FBF787
:10AD5400D9FEEEE76A682B78134413F8010CAB783C
:10AD64001844C0B21378C01AC0B2EAE728B108B5D3
:10AD740029B1FFF79BFB002008BD0E2070470E2071
:10AD8400FAE768B171B110B582B00B46002402A98C
:10AD940001F8014D0122FFF7F7FA204602B010BD79
:10ADA4000E2070470E20704700B330B58BB00546B7
:10ADB400F1B10C461031FFF74DFB0E4B09930E4BCE
:10ADC40093E803000790ADF8201003AA042109A812
:10ADD400FFF7A4FA01940623009307AB03AA1021FA
:10ADE4002846FFF7B3FA00200BB030BD0E207047A1
:10ADF4000E20F9E76E6B626B4812040010B330B595
:10AE040087B0044601B30D46104B019302AA0421F6
:10AE14000DEB0100FFF782FA02AB1022214618461F
:10AE2400FFF7D5F99DF816301B0203F47C536FEA43
:10AE340043436FEA53439DF8172013432B800020AC
:10AE440007B030BD0E2070470E20F9E776746164B8
:10AE540070B50E46044648B141B12368B34209D0E7
:10AE6400256865B926600023336017E07846FBF750
:10AE740049FEF2E77846FBF745FEF1E725462C68E4
:10AE84002CB1B442FAD17846FBF73CFEF6E735B173
:10AE94002EB1B54202D02B6833602E6070BD784667
:10AEA400FBF730FEF5E738B505460C4649B140B12D
:10AEB4002A68CAB1A24209D123682B60002020600D
:10AEC4000CE07846FBF71EFEF2E71A4613680BB156
:10AED400A342FAD152B1A34201D0052038BD236860
:10AEE400136000202060F9E70520F7E70520F5E767
:10AEF4002DE9F0410D461746064608B101B112B9D5
:10AF04007846FBF7FFFD3368AB4204D0346834B1B4
:10AF14004FF0000809E07846FBF7F4FDF6E73560EA
:10AF2400002028600FE0A046344654B1294620464C
:10AF3400B84730B92668B542F5D17846FBF7E2FD4B
:10AF4400F1E714B10F20BDE8F081B8F1000F09D08A
:10AF540045B1A8450AD0D8F800302B60C8F8005095
:10AF64000020F0E77846FBF7CDFDF2E70020EAE7A2
:10AF740030B583B0184606AC54F8045B00920B4617
:10AF840002460549002009F0EBFA22462946002032
:10AF940009F0FCF903B030BD50120400034B1860F3
:10AFA400034B1960034B1A60704700BFDC3200206A
:10AFB400D8320020E432002030B583B0044C246839
:10AFC40024B1079D0195069D0095A04703B030BDAF
:10AFD400E432002030B585B008AC54F8045B039427
:10AFE40001940095FFF7E8FF05B030BDF8B50E46B3
:10AFF4001546074680B33B78022B40F093807DB31F
:10B00400FA68137813449D42C0F08E801379517905
:10B014005B1A03F57F2303F6FF731B0303F58053C9
:10B0240013449D4200F282802B884BB32C8805EB9D
:10B03400840424F47F6323F00F039C4203D06B88C1
:10B04400B3F5FE4F0FD125F47F6525F00F0505F507
:10B0540080552C782C4406E07846FBF753FDCAE76C
:10B06400FC6823781C44FD682B796A799B1A03F5E4
:10B074007F2303F6FF731B0303F580531D440FE086
:10B084007846FBF73FFDD1E77846FBF73BFD1DE033
:10B0940024F47F6424F00F0404F5805423781C44C2
:10B0A400AC4226D26288531E9BB247F6FE618B42A5
:10B0B40007D8D6B1718833884A40134217D0002389
:10B0C40000E00023ABB92388002BDDD0238804EBF8
:10B0D400830323F47F6222F00F029342D8D0628864
:10B0E400B2F5FE4FD4D01C46DAE70123EAE7012388
:10B0F400E8E7AC421CD26288531E9BB247F6FE615D
:10B104008B4207D856B1718833884A40134207D01E
:10B11400002300E000236BB12046F8BD0123FAE7C9
:10B124000123F8E70024F7E70024F5E70024F3E718
:10B134000024F1E70024EFE708B50648FDF7E2F93B
:10B1440008B1002008BDFDF72FFA08B10020F9E787
:10B154000120F7E7A04E002046DF70472DE9F047B5
:10B1640007460E468589012411E0013B9BB2C118B4
:10B1740018F801201EF803A082EA0A0209F8012047
:10B18400002BF2D1A5EB0C05ADB20134A4B2BDB1D4
:10B19400230A43EA0423F3833046FFF7DDFFAC467A
:10B1A400102D28BF4FF0100CD7F81890601E000126
:10B1B400D7F8088006F1200E5FFA8CFC6346DFE7BF
:10B1C400BDE8F0872DE9F04780460F4616469946BC
:10B1D40000F1100400F1200518E05246394604EB52
:10B1E400090015F0D1F84E44B6B2103EB6B2574439
:10B1F40020E0013B9BB2EA5CE15C4A40E254002B54
:10B20400F7D14046FFF7A8FF4FF00009A6B1C9F1F6
:10B21400100A5645E1DA3246394604EB090015F0C6
:10B22400B3F806EB0900C0F110020021204415F028
:10B23400D4F800261023E2E7BDE8F087F8B5044609
:10B244000D461646838A002B3BD0402294F82030CA
:10B25400023B03EBD3735B10DB0003F038031343AF
:10B2640043F001032B746268176850689168C5F84D
:10B274001170C5F81500C5F81910127B6A77A289F8
:10B28400130A43EA0223EB832846FFF765FFA38AE8
:10B294006BB1B3F57F4F16D2A28A130A43EA022395
:10B2A4002B820223A28A21692846FFF78BFFA289F9
:10B2B4006AB994F8202005F12001304615F064F8AD
:10B2C400F8BD0022C2E77846FBF71CFCE4E7002344
:10B2D400A1682846FFF776FFEBE730B58DB0054649
:10B2E40003686C46186859689A68DB680FC4EA6991
:10B2F40069462846FFF7A2FFEC696B6801228DF8C6
:10B304001020186859689A68CDF81100CDF8151006
:10B31400CDF819201B7B8DF81D300023ADF81E30AD
:10B324006846FFF719FF95F8203008E0013B9BB20F
:10B33400E25C0CA9194411F8101C4A40E254002B99
:10B34400F4D169462846FFF709FF0DB030BD2DE959
:10B35400F0418CB000AF04460E4603683D461868C1
:10B3640059689A68DB680FC5A38933BBD4F8088091
:10B37400A369A36094F82030073303F4FC73ADEBA6
:10B38400030D6D466A4639462046FFF757FF63684A
:10B3940001223A74186859689A68C7F81100C7F806
:10B3A4001510C7F819201B7B7B770023FB833846D5
:10B3B400FFF7D2FE94F820301EE0636801223A744D
:10B3C400186859689A68C7F81100C7F81510C7F8C3
:10B3D40019201B7B7B770023FB8339462046FFF72C
:10B3E400BDFEC3E7013B9BB2EA5C07F1300119449F
:10B3F40011F8101C4A40EA54002BF3D1C4F8088019
:10B4040094F82020E169284614F064FFB0FA80F033
:10B41400400930703037BD46BDE8F081F0B40024F7
:10B42400272C2BD8164602EB8205EB002344144D3F
:10B4340005EBC3039B881BB1834212D00134EFE7B1
:10B444002B4692009719FD00254453F8357061F39B
:10B45400170743F8357003EBC50398800020F0BC50
:10B464007047074A06EB8606F3001C4452F8343052
:10B4740061F3170342F834300020F0E70420EEE7CC
:10B48400B04E002070B40024272C18D802EB82059B
:10B49400EB0023440C4D05EBC3039B88834201D08E
:10B4A4000134F1E702EB8206F3001C4455F8343012
:10B4B400C3F317038B4204D2002070BC70470020F2
:10B4C400FBE70120F9E700BFB04E002008B54FF4B8
:10B4D40020720021034814F080FF034B00221A70ED
:10B4E40008BD00BFB04E0020AC4E002008B5FFF7E9
:10B4F400EDFF08BD2DE9F041D8B1E2B1EBB1FF2970
:10B504001DD01C2B1DD81E4690460C469F1CFFB216
:10B51400791C07F0FAFA054640B147742B2383746B
:10B52400C47432464146143014F02EFF2846BDE858
:10B53400F0810025FAE70025F8E70025F6E7002565
:10B54400F4E70025F2E700002DE9F04F85B004AFE1
:10B554000C461646054630B3002C69D0611EC9B2AC
:10B564002A7822B3012A28D0364B1B6813F4807F33
:10B5740003D0354B1B68012B25DC324B1B6813F4BD
:10B58400807F5AD0304B1B68032B58DDEB46A04616
:10B594006300083303F47E73ADEB030D0DF1100962
:10B5A400CE4600232EE07846FBF7ACFAD4E73246C9
:10B5B400681C0DF041FE00203BE03246681C00F0A0
:10B5C400BDFD002035E0214BD3F804350192204A1B
:10B5D40000926D221F490220FFF7FCFCCDE76A1C94
:10B5E400D25C4FEA121A59001B4E306810F80A0058
:10B5F4000EF8130002F00F0201313068825C0EF87D
:10B60400012001334345EAD3002309F814300F4BDA
:10B61400D3F80435CDF80890104A0192104A0092EC
:10B624006E220C490420FFF7D5FCDD460B2000E018
:10B6340009200437BD46BDE8F08F0B20F9E70B2045
:10B64400F7E700BFDC320020D832002000B0004011
:10B65400B8120400AF120400E0320020E01204002B
:10B6640028100400014B1860704700BF5851002097
:10B6740070B50E46054678B196B12B78012B13D8D8
:10B68400234B1B6AA3B96B681D2B15D82B78012B90
:10B6940016D0204B1C681CE07846FBF733FAEBE726
:10B6A4007846FBF72FFAE8E77846FBF72BFAE7E74B
:10B6B4007846FBF727FAE6E77846FBF723FAE5E74F
:10B6C400EB68B3F1FF3FE4D07846FBF71BFAE0E701
:10B6D400246894B154F8083C1B682946A4F1080076
:10B6E40098470028F4D114F8042C012303FA02F239
:10B6F40007490B6A13430B62EAE7054B1B6A23B144
:10B704006A68034B03F8012B3360014B186A70BD60
:10B71400345100205C51002010B5114B1B6A13B149
:10B72400104B1C6804E07846FBF7ECF9F8E7246852
:10B734008CB1A4F108000A4B1A6A14F8041C012302
:10B744008B401A42F3D054F8083C5B68044911F862
:10B75400012B9847EBE7024B00221A6210BD00BF91
:10B76400345100205C51002010B50F4B1B6A13B1FB
:10B774000E4B1C6804E07846FBF7C4F9F8E724682C
:10B7840074B1A4F10800084B1A6A14F8041C0123CC
:10B794008B401A42F3D054F8083C9B689847EEE774
:10B7A400014B00221A6210BD345100205C5100206C
:10B7B4002DE9F0410D4617469846064648B1074B19
:10B7C4001C6824B143463A4631792846A047BDE86F
:10B7D400F0817846FBF796F9F1E700BF5851002055
:10B7E40070B50C4616460546C0B1DCB1F6B1236807
:10B7F40003B3636813B3A36823B3164B1B781F2BDF
:10B8040024D82C60134A1378591C11702B716E7153
:10B8140005F108011048FFF71BFB70BD7846FBF7E4
:10B8240071F9E2E77846FBF76DF9DFE77846FBF755
:10B8340069F9DCE77846FBF765F9DAE77846FBF760
:10B8440061F9D8E77846FBF75DF9D6E77846FBF768
:10B8540059F9D6E7305100205C510020054B5B6854
:10B8640033B14FF6FF72934202D0013B014A536059
:10B87400704700BF7051002008B5074BDB890342B5
:10B8840002D0054B1B8803B908BD0448FCF766FCCD
:10B89400034B01221A70F7E7705100206051002019
:10B8A4006C51002000B583B00191C1F30741012917
:10B8B40002D003B05DF804FB0028FAD11178074BDD
:10B8C4001B7803F001029142F3D083F00103034A91
:10B8D40013700120FFF7D0FFEBE700BF9851002061
:10B8E40030B583B001900C4640F20713B3EB104F10
:10B8F40009D1074B9C4204D01D460FCD0FC42B68C1
:10B90400236003B030BD7846FBF7FCF8F1E700BFD5
:10B914007051002030B583B001900C4640F20713FB
:10B92400B3EB104F0AD1074B9C4204D01D460FCCF9
:10B934000FC523682B60002003B030BD7846FBF7A9
:10B94400E1F8F0E7705100202DE9F0410446884603
:10B9540017461D465B68A3B10A2323700023237393
:10B964002B88E381094E30886082FDF757F92074F3
:10B974006B68A361C4F80480A760337B2377BDE8B8
:10B98400F0817846FBF7BEF8E6E700BF705100206F
:10B9940010B58AB00446124B5B6813B9104BDB89AF
:10B9A400CBB10F4B1B7B03F07F038DF800300D4BA5
:10B9B4001B7800228DF801208DF8023023460322E3
:10B9C400694602A8FFF7C0FF6FF0020102A8FCF766
:10B9D4006CF90AB010BD7846FBF794F8E1E700BFB4
:10B9E40070510020985100200378012B00D070473B
:10B9F40000B583B01A4B1B687BB1194B1B686846B2
:10BA04009847B0B9174B1B786BB1174B1B8843B1E0
:10BA1400154B5B6833B1012304E07846FBF772F8F9
:10BA2400EBE7002383B9114B1B7813B10E4B1B8832
:10BA340093B90F48FCF7A2FB00230A4A13700B4A80
:10BA4400137003B05DF804FB6846FFF7A1FF0028FC
:10BA5400E9D1FFF703FFE6E76846FFF799FFE8E758
:10BA6400D05100206D510020705100206C510020F5
:10BA7400605100200B6813B1013B0B60704710B597
:10BA84000C460348FDF72AFD0023236010BD00BFC8
:10BA9400B851002010B582B004462A4B1B68FBB194
:10BAA400284B1B6868469847002846D1264B1B68DC
:10BAB400D3B125490A68254B9B68934228BF134696
:10BAC400B3F5E16F94BFD31AA2F5E1630B608BB9B0
